{
  "contractName": "NewContract",
  "abi": [
    {
      "inputs": [],
      "payable": false,
      "stateMutability": "nonpayable",
      "type": "constructor"
    },
    {
      "anonymous": false,
      "inputs": [
        {
          "indexed": false,
          "internalType": "string",
          "name": "val1",
          "type": "string"
        },
        {
          "indexed": false,
          "internalType": "uint256",
          "name": "val2",
          "type": "uint256"
        }
      ],
      "name": "etherEvent",
      "type": "event"
    },
    {
      "constant": true,
      "inputs": [
        {
          "internalType": "uint256",
          "name": "",
          "type": "uint256"
        }
      ],
      "name": "list",
      "outputs": [
        {
          "internalType": "string",
          "name": "atrr",
          "type": "string"
        }
      ],
      "payable": false,
      "stateMutability": "view",
      "type": "function"
    },
    {
      "constant": true,
      "inputs": [],
      "name": "message",
      "outputs": [
        {
          "internalType": "string",
          "name": "",
          "type": "string"
        }
      ],
      "payable": false,
      "stateMutability": "view",
      "type": "function"
    },
    {
      "constant": true,
      "inputs": [],
      "name": "owner",
      "outputs": [
        {
          "internalType": "address",
          "name": "",
          "type": "address"
        }
      ],
      "payable": false,
      "stateMutability": "view",
      "type": "function"
    },
    {
      "constant": true,
      "inputs": [],
      "name": "returnStruct",
      "outputs": [
        {
          "components": [
            {
              "internalType": "string",
              "name": "atrr",
              "type": "string"
            }
          ],
          "internalType": "struct NewContract.testStruct",
          "name": "",
          "type": "tuple"
        }
      ],
      "payable": false,
      "stateMutability": "pure",
      "type": "function"
    },
    {
      "constant": false,
      "inputs": [],
      "name": "addToArray",
      "outputs": [
        {
          "components": [
            {
              "internalType": "string",
              "name": "atrr",
              "type": "string"
            }
          ],
          "internalType": "struct NewContract.testStruct[]",
          "name": "",
          "type": "tuple[]"
        }
      ],
      "payable": false,
      "stateMutability": "nonpayable",
      "type": "function"
    }
  ],
  "bytecode": "0x608060405234801561001057600080fd5b50336000806101000a81548173ffffffffffffffffffffffffffffffffffffffff021916908373ffffffffffffffffffffffffffffffffffffffff1602179055506040518060400160405280600e81526020017f4368696c6420436f6e74726163740000000000000000000000000000000000008152506001908051906020019061009c9291906100e3565b5033600260006101000a81548173ffffffffffffffffffffffffffffffffffffffff021916908373ffffffffffffffffffffffffffffffffffffffff160217905550610188565b828054600181600116156101000203166002900490600052602060002090601f016020900481019282601f1061012457805160ff1916838001178555610152565b82800160010185558215610152579182015b82811115610151578251825591602001919060010190610136565b5b50905061015f9190610163565b5090565b61018591905b80821115610181576000816000905550600101610169565b5090565b90565b61086b806101976000396000f3fe608060405234801561001057600080fd5b50600436106100575760003560e01c806380c9419e1461005c5780638da5cb5b1461008c578063c22fd45e146100aa578063d34e768d146100c8578063e21f37ce146100e6575b600080fd5b6100766004803603610071919081019061044c565b610104565b604051610083919061065f565b60405180910390f35b6100946101c3565b6040516100a19190610622565b60405180910390f35b6100b26101e9565b6040516100bf91906106af565b60405180910390f35b6100d0610229565b6040516100dd919061063d565b60405180910390f35b6100ee6102e1565b6040516100fb919061065f565b60405180910390f35b6003818154811061011157fe5b90600052602060002001600091509050806000018054600181600116156101000203166002900480601f0160208091040260200160405190810160405280929190818152602001828054600181600116156101000203166002900480156101b95780601f1061018e576101008083540402835291602001916101b9565b820191906000526020600020905b81548152906001019060200180831161019c57829003601f168201915b5050505050905081565b600260009054906101000a900473ffffffffffffffffffffffffffffffffffffffff1681565b6101f161037f565b6101f961037f565b60405180602001604052806040518060600160405280602d81526020016107cf602d913981525090508091505090565b606061023361037f565b60405180602001604052806040518060600160405280602d81526020016107fc602d9139815250905060038190806001815401808255809150509060018203906000526020600020016000909192909190915060008201518160000190805190602001906102a2929190610392565b505050507f5b43fbf80e6d8b225db427a7bc1ba940132084656811f08ed177826f50333d0d426040516102d59190610681565b60405180910390a15090565b60018054600181600116156101000203166002900480601f0160208091040260200160405190810160405280929190818152602001828054600181600116156101000203166002900480156103775780601f1061034c57610100808354040283529160200191610377565b820191906000526020600020905b81548152906001019060200180831161035a57829003601f168201915b505050505081565b6040518060200160405280606081525090565b828054600181600116156101000203166002900490600052602060002090601f016020900481019282601f106103d357805160ff1916838001178555610401565b82800160010185558215610401579182015b828111156104005782518255916020019190600101906103e5565b5b50905061040e9190610412565b5090565b61043491905b80821115610430576000816000905550600101610418565b5090565b90565b600081359050610446816107b7565b92915050565b60006020828403121561045e57600080fd5b600061046c84828501610437565b91505092915050565b600061048183836105e9565b905092915050565b61049281610737565b82525050565b60006104a3826106e1565b6104ad8185610704565b9350836020820285016104bf856106d1565b8060005b858110156104fb57848403895281516104dc8582610475565b94506104e7836106f7565b925060208a019950506001810190506104c3565b50829750879550505050505092915050565b6000610518826106ec565b6105228185610715565b9350610532818560208601610773565b61053b816107a6565b840191505092915050565b6000610551826106ec565b61055b8185610726565b935061056b818560208601610773565b610574816107a6565b840191505092915050565b600061058c600d83610726565b91507f6576656e74206d657373616765000000000000000000000000000000000000006000830152602082019050919050565b600060208301600083015184820360008601526105dc828261050d565b9150508091505092915050565b60006020830160008301518482036000860152610606828261050d565b9150508091505092915050565b61061c81610769565b82525050565b60006020820190506106376000830184610489565b92915050565b600060208201905081810360008301526106578184610498565b905092915050565b600060208201905081810360008301526106798184610546565b905092915050565b6000604082019050818103600083015261069a8161057f565b90506106a96020830184610613565b92915050565b600060208201905081810360008301526106c981846105bf565b905092915050565b6000819050602082019050919050565b600081519050919050565b600081519050919050565b6000602082019050919050565b600082825260208201905092915050565b600082825260208201905092915050565b600082825260208201905092915050565b600061074282610749565b9050919050565b600073ffffffffffffffffffffffffffffffffffffffff82169050919050565b6000819050919050565b60005b83811015610791578082015181840152602081019050610776565b838111156107a0576000848401525b50505050565b6000601f19601f8301169050919050565b6107c081610769565b81146107cb57600080fd5b5056fe4869207468657265207468697320697320612063616c6c2066726f6d20457468657265756d20776f726c642021204869207468657265207468697320697320612063616c6c2068656c6c6f2066726f6d20457468657265756d21a365627a7a72315820f0f0adb387f0b671d45f88649833b0baa3893eeefb6e443174e800f5a191c7f96c6578706572696d656e74616cf564736f6c63430005110040",
  "source": "pragma solidity >=0.5.0 <0.6.0;\r\n\r\npragma experimental ABIEncoderV2;\r\n\r\n\r\nimport \"./newContractChild.sol\";\r\n\r\ncontract NewContract is NewContractChild{\r\n\r\n    event etherEvent(string val1,uint val2);\r\n\r\n\r\n    address public owner;\r\n\r\n\r\n     constructor() public{\r\n\r\n        owner = msg.sender;\r\n    }\r\n\r\n    struct testStruct {\r\n        string atrr;\r\n    }\r\n\r\n    testStruct[] public list;\r\n\r\n    function returnStruct() public pure returns(testStruct memory) {\r\n\r\n\r\n        testStruct memory myStrcut = testStruct(\"Hi there this is a call from Ethereum world !\");\r\n\r\n\r\n        return myStrcut;\r\n\r\n\r\n    }\r\n\r\n\r\n    function addToArray() public returns(testStruct[] memory){\r\n\r\n\r\n        testStruct memory myStrcut = testStruct(\" Hi there this is a call hello from Ethereum!\");\r\n\r\n        \r\n        list.push(myStrcut);\r\n\r\n         emit etherEvent(\"event message\", now);\r\n\r\n\r\n    }\r\n\r\n\r\n\r\n}\r\n\r\n\r\n",
  "sourcePath": "C:\\Users\\aelaal01\\source\\repos\\GRAD-ETH-PROJ\\solidity_contracts\\contracts\\newContract.sol",
  "compiler": {
    "name": "solc",
    "version": "0.5.17+commit.d19bba13.Emscripten.clang"
  },
  "schemaVersion": "3.4.10",
  "updatedAt": "2022-10-18T00:04:32.297Z",
  "networkType": "ethereum",
  "devdoc": {
    "methods": {}
  },
  "userdoc": {
    "methods": {}
  }
}