{
  "contractName": "NewContractChild",
  "abi": [
    {
      "inputs": [],
      "payable": false,
      "stateMutability": "nonpayable",
      "type": "constructor"
    },
    {
      "anonymous": false,
      "inputs": [
        {
          "indexed": false,
          "internalType": "string",
          "name": "val1",
          "type": "string"
        },
        {
          "indexed": false,
          "internalType": "uint256",
          "name": "val2",
          "type": "uint256"
        }
      ],
      "name": "etherEvent",
      "type": "event"
    },
    {
      "constant": true,
      "inputs": [],
      "name": "message",
      "outputs": [
        {
          "internalType": "string",
          "name": "",
          "type": "string"
        }
      ],
      "payable": false,
      "stateMutability": "view",
      "type": "function"
    },
    {
      "constant": true,
      "inputs": [],
      "name": "owner",
      "outputs": [
        {
          "internalType": "address",
          "name": "",
          "type": "address"
        }
      ],
      "payable": false,
      "stateMutability": "view",
      "type": "function"
    }
  ],
  "bytecode": "0x608060405234801561001057600080fd5b50336000806101000a81548173ffffffffffffffffffffffffffffffffffffffff021916908373ffffffffffffffffffffffffffffffffffffffff1602179055506040518060400160405280600e81526020017f4368696c6420436f6e74726163740000000000000000000000000000000000008152506001908051906020019061009c9291906100a2565b50610147565b828054600181600116156101000203166002900490600052602060002090601f016020900481019282601f106100e357805160ff1916838001178555610111565b82800160010185558215610111579182015b828111156101105782518255916020019190600101906100f5565b5b50905061011e9190610122565b5090565b61014491905b80821115610140576000816000905550600101610128565b5090565b90565b610294806101566000396000f3fe608060405234801561001057600080fd5b50600436106100365760003560e01c80638da5cb5b1461003b578063e21f37ce14610059575b600080fd5b610043610077565b6040516100509190610182565b60405180910390f35b61006161009c565b60405161006e919061019d565b60405180910390f35b6000809054906101000a900473ffffffffffffffffffffffffffffffffffffffff1681565b60018054600181600116156101000203166002900480601f0160208091040260200160405190810160405280929190818152602001828054600181600116156101000203166002900480156101325780601f1061010757610100808354040283529160200191610132565b820191906000526020600020905b81548152906001019060200180831161011557829003601f168201915b505050505081565b610143816101db565b82525050565b6000610154826101bf565b61015e81856101ca565b935061016e81856020860161020d565b61017781610240565b840191505092915050565b6000602082019050610197600083018461013a565b92915050565b600060208201905081810360008301526101b78184610149565b905092915050565b600081519050919050565b600082825260208201905092915050565b60006101e6826101ed565b9050919050565b600073ffffffffffffffffffffffffffffffffffffffff82169050919050565b60005b8381101561022b578082015181840152602081019050610210565b8381111561023a576000848401525b50505050565b6000601f19601f830116905091905056fea365627a7a723158209fe91ee148014e6e3d2c466339ebb65e7a99a872c8572aaf376ba084f1ebc3056c6578706572696d656e74616cf564736f6c63430005110040",
  "source": "pragma solidity >=0.5.0 <0.6.0;\r\n\r\npragma experimental ABIEncoderV2;\r\n\r\n\r\ncontract NewContractChild {\r\n\r\n    event etherEvent(string val1,uint val2);\r\n\r\n\r\n    address public owner;\r\n\r\n    string public message;\r\n\r\n\r\n     constructor() public{\r\n\r\n        owner = msg.sender;\r\n\r\n        message = \"Child Contract\";\r\n    }\r\n\r\n\r\n}\r\n\r\n\r\n",
  "sourcePath": "C:\\Users\\aelaal01\\source\\repos\\GRAD-ETH-PROJ\\solidity_contracts\\contracts\\newContractChild.sol",
  "compiler": {
    "name": "solc",
    "version": "0.5.17+commit.d19bba13.Emscripten.clang"
  },
  "schemaVersion": "3.4.10",
  "updatedAt": "2022-10-18T00:04:29.961Z",
  "devdoc": {
    "methods": {}
  },
  "userdoc": {
    "methods": {}
  }
}