{
  "contractName": "NFT",
  "abi": [
    {
      "anonymous": false,
      "inputs": [
        {
          "indexed": true,
          "internalType": "address",
          "name": "_owner",
          "type": "address"
        },
        {
          "indexed": true,
          "internalType": "address",
          "name": "_approved",
          "type": "address"
        },
        {
          "indexed": true,
          "internalType": "uint256",
          "name": "_tokenId",
          "type": "uint256"
        }
      ],
      "name": "Approval",
      "type": "event"
    },
    {
      "anonymous": false,
      "inputs": [
        {
          "indexed": false,
          "internalType": "uint256",
          "name": "NFTid",
          "type": "uint256"
        },
        {
          "indexed": false,
          "internalType": "string",
          "name": "name",
          "type": "string"
        }
      ],
      "name": "NewNFTCreated",
      "type": "event"
    },
    {
      "anonymous": false,
      "inputs": [
        {
          "indexed": true,
          "internalType": "address",
          "name": "_from",
          "type": "address"
        },
        {
          "indexed": true,
          "internalType": "address",
          "name": "_to",
          "type": "address"
        },
        {
          "indexed": true,
          "internalType": "uint256",
          "name": "_tokenId",
          "type": "uint256"
        }
      ],
      "name": "Transfer",
      "type": "event"
    },
    {
      "constant": true,
      "inputs": [
        {
          "internalType": "uint256",
          "name": "",
          "type": "uint256"
        }
      ],
      "name": "NFTApprovals",
      "outputs": [
        {
          "internalType": "address",
          "name": "",
          "type": "address"
        }
      ],
      "payable": false,
      "stateMutability": "view",
      "type": "function"
    },
    {
      "constant": true,
      "inputs": [
        {
          "internalType": "uint256",
          "name": "",
          "type": "uint256"
        }
      ],
      "name": "NFTOwner",
      "outputs": [
        {
          "internalType": "address",
          "name": "",
          "type": "address"
        }
      ],
      "payable": false,
      "stateMutability": "view",
      "type": "function"
    },
    {
      "constant": true,
      "inputs": [
        {
          "internalType": "uint256",
          "name": "",
          "type": "uint256"
        }
      ],
      "name": "NFTsList",
      "outputs": [
        {
          "internalType": "uint256",
          "name": "ID",
          "type": "uint256"
        },
        {
          "internalType": "string",
          "name": "name",
          "type": "string"
        },
        {
          "internalType": "string",
          "name": "NftCategory",
          "type": "string"
        },
        {
          "internalType": "uint256",
          "name": "value",
          "type": "uint256"
        },
        {
          "internalType": "string",
          "name": "artFileUrl",
          "type": "string"
        }
      ],
      "payable": false,
      "stateMutability": "view",
      "type": "function"
    },
    {
      "constant": true,
      "inputs": [
        {
          "internalType": "address",
          "name": "",
          "type": "address"
        }
      ],
      "name": "ownerNFTCount",
      "outputs": [
        {
          "internalType": "uint256",
          "name": "",
          "type": "uint256"
        }
      ],
      "payable": false,
      "stateMutability": "view",
      "type": "function"
    },
    {
      "constant": false,
      "inputs": [
        {
          "internalType": "address",
          "name": "_approved",
          "type": "address"
        },
        {
          "internalType": "uint256",
          "name": "_tokenId",
          "type": "uint256"
        }
      ],
      "name": "approve",
      "outputs": [],
      "payable": true,
      "stateMutability": "payable",
      "type": "function"
    },
    {
      "constant": true,
      "inputs": [
        {
          "internalType": "address",
          "name": "_owner",
          "type": "address"
        }
      ],
      "name": "balanceOf",
      "outputs": [
        {
          "internalType": "uint256",
          "name": "",
          "type": "uint256"
        }
      ],
      "payable": false,
      "stateMutability": "view",
      "type": "function"
    },
    {
      "constant": true,
      "inputs": [
        {
          "internalType": "uint256",
          "name": "_tokenId",
          "type": "uint256"
        }
      ],
      "name": "ownerOf",
      "outputs": [
        {
          "internalType": "address",
          "name": "",
          "type": "address"
        }
      ],
      "payable": false,
      "stateMutability": "view",
      "type": "function"
    },
    {
      "constant": false,
      "inputs": [
        {
          "internalType": "address",
          "name": "_from",
          "type": "address"
        },
        {
          "internalType": "address",
          "name": "_to",
          "type": "address"
        },
        {
          "internalType": "uint256",
          "name": "_tokenId",
          "type": "uint256"
        }
      ],
      "name": "transferFrom",
      "outputs": [],
      "payable": true,
      "stateMutability": "payable",
      "type": "function"
    },
    {
      "constant": true,
      "inputs": [],
      "name": "getAllNFTs",
      "outputs": [
        {
          "components": [
            {
              "internalType": "uint256",
              "name": "ID",
              "type": "uint256"
            },
            {
              "internalType": "string",
              "name": "name",
              "type": "string"
            },
            {
              "internalType": "string",
              "name": "NftCategory",
              "type": "string"
            },
            {
              "internalType": "uint256",
              "name": "value",
              "type": "uint256"
            },
            {
              "internalType": "string",
              "name": "artFileUrl",
              "type": "string"
            }
          ],
          "internalType": "struct NFT.Nft[]",
          "name": "",
          "type": "tuple[]"
        }
      ],
      "payable": false,
      "stateMutability": "view",
      "type": "function"
    }
  ],
  "bytecode": "0x608060405234801561001057600080fd5b50611195806100206000396000f3fe6080604052600436106100865760003560e01c8063d51fe9cb11610059578063d51fe9cb1461013d578063dd297ce81461017a578063e0391b09146101b7578063e602eb3d146101e2578063fb88df181461022357610086565b8063095ea7b31461008b57806323b872dd146100a75780636352211e146100c357806370a0823114610100575b600080fd5b6100a560048036036100a09190810190610c87565b610260565b005b6100c160048036036100bc9190810190610c38565b6103b3565b005b3480156100cf57600080fd5b506100ea60048036036100e59190810190610cc3565b6104cb565b6040516100f79190610f3e565b60405180910390f35b34801561010c57600080fd5b5061012760048036036101229190810190610c0f565b610507565b6040516101349190610fbb565b60405180910390f35b34801561014957600080fd5b50610164600480360361015f9190810190610cc3565b610550565b6040516101719190610f3e565b60405180910390f35b34801561018657600080fd5b506101a1600480360361019c9190810190610cc3565b610583565b6040516101ae9190610f3e565b60405180910390f35b3480156101c357600080fd5b506101cc6105b6565b6040516101d99190610f59565b60405180910390f35b3480156101ee57600080fd5b5061020960048036036102049190810190610cc3565b61080f565b60405161021a959493929190610fd6565b60405180910390f35b34801561022f57600080fd5b5061024a60048036036102459190810190610c0f565b610a1a565b6040516102579190610fbb565b60405180910390f35b8060008082815260200190815260200160002060009054906101000a900473ffffffffffffffffffffffffffffffffffffffff1673ffffffffffffffffffffffffffffffffffffffff163373ffffffffffffffffffffffffffffffffffffffff1614610301576040517f08c379a00000000000000000000000000000000000000000000000000000000081526004016102f890610f9b565b60405180910390fd5b826002600084815260200190815260200160002060006101000a81548173ffffffffffffffffffffffffffffffffffffffff021916908373ffffffffffffffffffffffffffffffffffffffff160217905550818373ffffffffffffffffffffffffffffffffffffffff163373ffffffffffffffffffffffffffffffffffffffff167f8c5be1e5ebec7d5bd14f71427d1e84f3dd0314c0f7b2291e5b200ac8c7c3b92560405160405180910390a4505050565b34600382815481106103c157fe5b90600052602060002090600502016003015414610413576040517f08c379a000000000000000000000000000000000000000000000000000000000815260040161040a90610f7b565b60405180910390fd5b61041e838383610a32565b60008390508073ffffffffffffffffffffffffffffffffffffffff166108fc349081150290604051600060405180830381858888f19350505050158015610469573d6000803e3d6000fd5b50818373ffffffffffffffffffffffffffffffffffffffff168573ffffffffffffffffffffffffffffffffffffffff167fddf252ad1be2c89b69c2b068fc378daa952ba7f163c4a11628f55a4df523b3ef60405160405180910390a450505050565b600080600083815260200190815260200160002060009054906101000a900473ffffffffffffffffffffffffffffffffffffffff169050919050565b6000600160008373ffffffffffffffffffffffffffffffffffffffff1673ffffffffffffffffffffffffffffffffffffffff168152602001908152602001600020549050919050565b60006020528060005260406000206000915054906101000a900473ffffffffffffffffffffffffffffffffffffffff1681565b60026020528060005260406000206000915054906101000a900473ffffffffffffffffffffffffffffffffffffffff1681565b60606003805480602002602001604051908101604052809291908181526020016000905b8282101561080657838290600052602060002090600502016040518060a001604052908160008201548152602001600182018054600181600116156101000203166002900480601f0160208091040260200160405190810160405280929190818152602001828054600181600116156101000203166002900480156106a05780601f10610675576101008083540402835291602001916106a0565b820191906000526020600020905b81548152906001019060200180831161068357829003601f168201915b50505050508152602001600282018054600181600116156101000203166002900480601f0160208091040260200160405190810160405280929190818152602001828054600181600116156101000203166002900480156107425780601f1061071757610100808354040283529160200191610742565b820191906000526020600020905b81548152906001019060200180831161072557829003601f168201915b5050505050815260200160038201548152602001600482018054600181600116156101000203166002900480601f0160208091040260200160405190810160405280929190818152602001828054600181600116156101000203166002900480156107ee5780601f106107c3576101008083540402835291602001916107ee565b820191906000526020600020905b8154815290600101906020018083116107d157829003601f168201915b505050505081525050815260200190600101906105da565b50505050905090565b6003818154811061081c57fe5b9060005260206000209060050201600091509050806000015490806001018054600181600116156101000203166002900480601f0160208091040260200160405190810160405280929190818152602001828054600181600116156101000203166002900480156108ce5780601f106108a3576101008083540402835291602001916108ce565b820191906000526020600020905b8154815290600101906020018083116108b157829003601f168201915b505050505090806002018054600181600116156101000203166002900480601f01602080910402602001604051908101604052809291908181526020018280546001816001161561010002031660029004801561096c5780601f106109415761010080835404028352916020019161096c565b820191906000526020600020905b81548152906001019060200180831161094f57829003601f168201915b505050505090806003015490806004018054600181600116156101000203166002900480601f016020809104026020016040519081016040528092919081815260200182805460018160011615610100020316600290048015610a105780601f106109e557610100808354040283529160200191610a10565b820191906000526020600020905b8154815290600101906020018083116109f357829003601f168201915b5050505050905085565b60016020528060005260406000206000915090505481565b610a8460018060008573ffffffffffffffffffffffffffffffffffffffff1673ffffffffffffffffffffffffffffffffffffffff16815260200190815260200160002054610bb290919063ffffffff16565b600160008473ffffffffffffffffffffffffffffffffffffffff1673ffffffffffffffffffffffffffffffffffffffff16815260200190815260200160002081905550610b1960018060008673ffffffffffffffffffffffffffffffffffffffff1673ffffffffffffffffffffffffffffffffffffffff16815260200190815260200160002054610bce90919063ffffffff16565b600160008573ffffffffffffffffffffffffffffffffffffffff1673ffffffffffffffffffffffffffffffffffffffff168152602001908152602001600020819055508160008083815260200190815260200160002060006101000a81548173ffffffffffffffffffffffffffffffffffffffff021916908373ffffffffffffffffffffffffffffffffffffffff160217905550505050565b600080828401905083811015610bc457fe5b8091505092915050565b600082821115610bda57fe5b818303905092915050565b600081359050610bf481611124565b92915050565b600081359050610c098161113b565b92915050565b600060208284031215610c2157600080fd5b6000610c2f84828501610be5565b91505092915050565b600080600060608486031215610c4d57600080fd5b6000610c5b86828701610be5565b9350506020610c6c86828701610be5565b9250506040610c7d86828701610bfa565b9150509250925092565b60008060408385031215610c9a57600080fd5b6000610ca885828601610be5565b9250506020610cb985828601610bfa565b9150509250929050565b600060208284031215610cd557600080fd5b6000610ce384828501610bfa565b91505092915050565b6000610cf88383610e9c565b905092915050565b610d09816110a4565b82525050565b6000610d1a8261104e565b610d248185611071565b935083602082028501610d368561103e565b8060005b85811015610d725784840389528151610d538582610cec565b9450610d5e83611064565b925060208a01995050600181019050610d3a565b50829750879550505050505092915050565b6000610d8f82611059565b610d998185611082565b9350610da98185602086016110e0565b610db281611113565b840191505092915050565b6000610dc882611059565b610dd28185611093565b9350610de28185602086016110e0565b610deb81611113565b840191505092915050565b6000610e03602e83611093565b91507f596f7520646f6e2774206861766520656e6f7567682066756e647320666f722060008301527f74686973207472616e73666572210000000000000000000000000000000000006020830152604082019050919050565b6000610e69601783611093565b91507f596f7520617265206e6f7420746865206f776e657220210000000000000000006000830152602082019050919050565b600060a083016000830151610eb46000860182610f20565b5060208301518482036020860152610ecc8282610d84565b91505060408301518482036040860152610ee68282610d84565b9150506060830151610efb6060860182610f20565b5060808301518482036080860152610f138282610d84565b9150508091505092915050565b610f29816110d6565b82525050565b610f38816110d6565b82525050565b6000602082019050610f536000830184610d00565b92915050565b60006020820190508181036000830152610f738184610d0f565b905092915050565b60006020820190508181036000830152610f9481610df6565b9050919050565b60006020820190508181036000830152610fb481610e5c565b9050919050565b6000602082019050610fd06000830184610f2f565b92915050565b600060a082019050610feb6000830188610f2f565b8181036020830152610ffd8187610dbd565b905081810360408301526110118186610dbd565b90506110206060830185610f2f565b81810360808301526110328184610dbd565b90509695505050505050565b6000819050602082019050919050565b600081519050919050565b600081519050919050565b6000602082019050919050565b600082825260208201905092915050565b600082825260208201905092915050565b600082825260208201905092915050565b60006110af826110b6565b9050919050565b600073ffffffffffffffffffffffffffffffffffffffff82169050919050565b6000819050919050565b60005b838110156110fe5780820151818401526020810190506110e3565b8381111561110d576000848401525b50505050565b6000601f19601f8301169050919050565b61112d816110a4565b811461113857600080fd5b50565b611144816110d6565b811461114f57600080fd5b5056fea365627a7a72315820b67573371504cfb492821400f4f7da0d348b754f10a39eae72b0c144ca4a4c096c6578706572696d656e74616cf564736f6c63430005110040",
  "source": "pragma solidity >=0.5.0 <0.6.0;\r\npragma experimental ABIEncoderV2;\r\n\r\nimport \"./erc721.sol\";\r\nimport \"./safemath.sol\";\r\n\r\n/**\r\n    NFT smart contract implements the specs of ERC721 tokes that includes approve,transferFrom,ownerOf,balanceOf\r\n    NFT smart contract will also hold the data of each minted NFT token in a storage array data structure, along with\r\n    some mappings such as NFTOwner,ownerNFTCount, and NFTApprovals\r\n */\r\ncontract NFT is ERC721 {\r\n    using SafeMath for uint256;\r\n\r\n    // NFT struct that represent an ERC721 token\r\n    struct Nft {\r\n        uint256 ID; // ID for the NFT used as index to retrieve an NFT struct from NFTsList\r\n        string name; // given name of the NFT\r\n        string NftCategory; // photograph, digital art,.... (will be set in the front-end)\r\n        uint256 value; // value must be converted to Wei from the front-end\r\n        string artFileUrl; // url to the art. usually hosted off chain or on IPFS\r\n    }\r\n\r\n    event NewNFTCreated(uint256 NFTid, string name);\r\n\r\n    mapping(uint256 => address) public NFTOwner; // Mapping of NFT id to  an address of an EOA account(current owner)\r\n    mapping(address => uint256) public ownerNFTCount; // the number of NFT that an user has minted\r\n    mapping(uint256 => address) public NFTApprovals; // mapping for approved user to claim an NFT\r\n    Nft[] public NFTsList; // Array in storage that holds objects of Nft and addressed using the the NFT id as an index\r\n\r\n\r\n\r\n\r\n\r\n    // A modifier method used by other methods that would like to restrict access to executing the method to only\r\n    // the owner of an NFT. Will come handy with the approve method\r\n    modifier onlyOwnerOf(uint256 _NFTid) {\r\n        require(msg.sender == NFTOwner[_NFTid], \"You are not the owner !\");\r\n        _;\r\n    }\r\n\r\n    /**\r\n\r\n     * @dev method that allows only the owner of an NFT using the modifier onlyOwnerOf to approve an other user\r\n     * to transfer ownership \r\n     */\r\n    function approve(address _approved, uint256 _tokenId)\r\n        external\r\n        payable\r\n        onlyOwnerOf(_tokenId)\r\n    {\r\n        NFTApprovals[_tokenId] = _approved;\r\n        emit Approval(msg.sender, _approved, _tokenId);\r\n    }\r\n\r\n    /**\r\n\r\n     * @dev Method to mint a new NFT token\r\n     */\r\n    function _mintERC721Token(\r\n        string memory name, // name set by the front end\r\n        uint256 value, // desired value in Wei\r\n        string memory category, // category\r\n        string memory artFileUrl // url of the NFT art\r\n    ) internal {\r\n        // NFTsList.push() will return a number starting form 1, we want the ID to start form 0,1,2,3... since it will\r\n        // used to as an index to address the NFT in  NFTsList[]\r\n        // To properly address the NFTsList[] we subtract 1 from the push() returned value.\r\n        uint256 NFTid = NFTsList.push(\r\n            Nft(0, name, category, value, artFileUrl)\r\n        ) - 1;\r\n\r\n        // use the returned index as the NFTid\r\n        NFTsList[NFTid].ID = NFTid;\r\n\r\n        //  set the NFTOwner mapping to with the NFTid to point to caller's address (Creator in this case)\r\n        NFTOwner[NFTid] = msg.sender;\r\n\r\n        // increment the  number of minted NFT for the caller using  ownerNFTCount mapping\r\n        ownerNFTCount[msg.sender] = ownerNFTCount[msg.sender].add(1);\r\n\r\n        // emit an event for the front-end\r\n        emit NewNFTCreated(NFTid, name);\r\n    }\r\n\r\n    /**\r\n\r\n     * @dev Method the sets the new owner of an NFT \r\n     */\r\n    function _transferNFT(\r\n        address _from,\r\n        address _to,\r\n        uint256 _tokenId\r\n    ) private {\r\n        // increase the count of NFTs for the new owner\r\n        ownerNFTCount[_to] = ownerNFTCount[_to].add(1);\r\n\r\n        // decrease the count of NFTs for the old owner\r\n        ownerNFTCount[_from] = ownerNFTCount[_from].sub(1);\r\n\r\n        // set the NFT to point to the new owner's address using NFTOwner mapping\r\n        NFTOwner[_tokenId] = _to;\r\n    }\r\n\r\n    /**\r\n\r\n     * @dev method to get the number of NFT's a caller has\r\n       @return uint as the count\r\n     */\r\n    function balanceOf(address _owner) external view returns (uint256) {\r\n        return ownerNFTCount[_owner];\r\n    }\r\n\r\n    /**\r\n\r\n     * @dev method to get the address of the an NFT owner\r\n       @return address of the owner\r\n     */\r\n    function ownerOf(uint256 _tokenId) external view returns (address) {\r\n        return NFTOwner[_tokenId];\r\n    }\r\n\r\n    /**\r\n\r\n     * @dev public payable method that gets called  from the front-end using metamask as the user account and web.js\r\n     * this method will call _transferNFT to transfer the NFT ownership and transfers the amount set in the \r\n     * transaction from the sender's address to the receiver's (caller) address \r\n     */\r\n    function transferFrom(\r\n        address _from,\r\n        address _to,\r\n        uint256 _tokenId\r\n    ) external payable {\r\n        //1.check if sender sent enough ether for the NFT they want to acquire\r\n        // or check if they are pr-approved by the owner\r\n\r\n        require(\r\n            NFTsList[_tokenId].value == msg.value,\r\n            \"You don't have enough funds for this transfer!\"\r\n        );\r\n\r\n        // 2. transfer the NFT to the new owner\r\n        _transferNFT(_from, _to, _tokenId);\r\n\r\n        //3.send the Ether to the previous owner's account\r\n\r\n        //3.1 convert the _from (previous owner's address) to a payable address of 160 bit length\r\n\r\n        address payable _oldOwnerAddress = address(uint160(_from));\r\n\r\n        //3.2 transfer the ether to _oldOwnerAddress\r\n        _oldOwnerAddress.transfer(msg.value);\r\n\r\n        //4. emit an event to the front-end indicating that the transfer was a success\r\n        emit Transfer(_from, _to, _tokenId);\r\n    }\r\n\r\n\r\n\r\n    /**\r\n        @dev  method that returns the entire NFTsList\r\n        @return Nft[] \r\n     */\r\n    function getAllNFTs() external view returns (Nft[] memory) {\r\n        return NFTsList;\r\n    }\r\n\r\n    /**\r\n\r\n     * @dev method that allows only the owner of an NFT using the modifier onlyOwnerOf to approve an other user\r\n     * to transfer ownership \r\n     */\r\n    // function approve(address _approved, uint256 _tokenId)\r\n    //     external\r\n    //     payable\r\n    //     onlyOwnerOf(_tokenId)\r\n    // {\r\n    //     NFTApprovals[_tokenId] = _approved;\r\n    //     emit Approval(msg.sender, _approved, _tokenId);\r\n    // }\r\n\r\n}\r\n",
  "sourcePath": "C:\\Users\\adam\\Repos\\GRAD-ETH-PROJ\\solidity_contracts\\contracts\\nft.sol",
  "compiler": {
    "name": "solc",
    "version": "0.5.17+commit.d19bba13.Emscripten.clang"
  },
  "schemaVersion": "3.4.11",
  "updatedAt": "2022-12-01T19:12:16.226Z",
  "devdoc": {
    "methods": {
      "approve(address,uint256)": {
        "details": "method that allows only the owner of an NFT using the modifier onlyOwnerOf to approve an other user to transfer ownership "
      },
      "balanceOf(address)": {
        "details": "method to get the number of NFT's a caller has",
        "return": "uint as the count"
      },
      "getAllNFTs()": {
        "details": "method that returns the entire NFTsList",
        "return": "Nft[] "
      },
      "ownerOf(uint256)": {
        "details": "method to get the address of the an NFT owner",
        "return": "address of the owner"
      },
      "transferFrom(address,address,uint256)": {
        "details": "public payable method that gets called  from the front-end using metamask as the user account and web.js this method will call _transferNFT to transfer the NFT ownership and transfers the amount set in the  transaction from the sender's address to the receiver's (caller) address "
      }
    }
  },
  "userdoc": {
    "methods": {},
    "notice": "NFT smart contract implements the specs of ERC721 tokes that includes approve,transferFrom,ownerOf,balanceOf NFT smart contract will also hold the data of each minted NFT token in a storage array data structure, along with some mappings such as NFTOwner,ownerNFTCount, and NFTApprovals"
  }
}