{
  "contractName": "NFT",
  "abi": [
    {
      "anonymous": false,
      "inputs": [
        {
          "indexed": true,
          "internalType": "address",
          "name": "_owner",
          "type": "address"
        },
        {
          "indexed": true,
          "internalType": "address",
          "name": "_approved",
          "type": "address"
        },
        {
          "indexed": true,
          "internalType": "uint256",
          "name": "_tokenId",
          "type": "uint256"
        }
      ],
      "name": "Approval",
      "type": "event"
    },
    {
      "anonymous": false,
      "inputs": [
        {
          "indexed": false,
          "internalType": "uint256",
          "name": "NFTid",
          "type": "uint256"
        },
        {
          "indexed": false,
          "internalType": "string",
          "name": "name",
          "type": "string"
        }
      ],
      "name": "NewNFTCreated",
      "type": "event"
    },
    {
      "anonymous": false,
      "inputs": [
        {
          "indexed": true,
          "internalType": "address",
          "name": "_from",
          "type": "address"
        },
        {
          "indexed": true,
          "internalType": "address",
          "name": "_to",
          "type": "address"
        },
        {
          "indexed": true,
          "internalType": "uint256",
          "name": "_tokenId",
          "type": "uint256"
        }
      ],
      "name": "Transfer",
      "type": "event"
    },
    {
      "constant": true,
      "inputs": [
        {
          "internalType": "uint256",
          "name": "",
          "type": "uint256"
        }
      ],
      "name": "NFTApprovals",
      "outputs": [
        {
          "internalType": "address",
          "name": "",
          "type": "address"
        }
      ],
      "payable": false,
      "stateMutability": "view",
      "type": "function"
    },
    {
      "constant": true,
      "inputs": [
        {
          "internalType": "uint256",
          "name": "",
          "type": "uint256"
        }
      ],
      "name": "NFTOwner",
      "outputs": [
        {
          "internalType": "address",
          "name": "",
          "type": "address"
        }
      ],
      "payable": false,
      "stateMutability": "view",
      "type": "function"
    },
    {
      "constant": true,
      "inputs": [
        {
          "internalType": "uint256",
          "name": "",
          "type": "uint256"
        }
      ],
      "name": "NFTsList",
      "outputs": [
        {
          "internalType": "uint256",
          "name": "ID",
          "type": "uint256"
        },
        {
          "internalType": "string",
          "name": "name",
          "type": "string"
        },
        {
          "internalType": "string",
          "name": "NftCategory",
          "type": "string"
        },
        {
          "internalType": "uint256",
          "name": "value",
          "type": "uint256"
        },
        {
          "internalType": "string",
          "name": "artFileUrl",
          "type": "string"
        }
      ],
      "payable": false,
      "stateMutability": "view",
      "type": "function"
    },
    {
      "constant": true,
      "inputs": [
        {
          "internalType": "address",
          "name": "",
          "type": "address"
        }
      ],
      "name": "ownerNFTCount",
      "outputs": [
        {
          "internalType": "uint256",
          "name": "",
          "type": "uint256"
        }
      ],
      "payable": false,
      "stateMutability": "view",
      "type": "function"
    },
    {
      "constant": true,
      "inputs": [
        {
          "internalType": "address",
          "name": "_owner",
          "type": "address"
        }
      ],
      "name": "balanceOf",
      "outputs": [
        {
          "internalType": "uint256",
          "name": "",
          "type": "uint256"
        }
      ],
      "payable": false,
      "stateMutability": "view",
      "type": "function"
    },
    {
      "constant": true,
      "inputs": [
        {
          "internalType": "uint256",
          "name": "_tokenId",
          "type": "uint256"
        }
      ],
      "name": "ownerOf",
      "outputs": [
        {
          "internalType": "address",
          "name": "",
          "type": "address"
        }
      ],
      "payable": false,
      "stateMutability": "view",
      "type": "function"
    },
    {
      "constant": false,
      "inputs": [
        {
          "internalType": "address",
          "name": "_from",
          "type": "address"
        },
        {
          "internalType": "address",
          "name": "_to",
          "type": "address"
        },
        {
          "internalType": "uint256",
          "name": "_tokenId",
          "type": "uint256"
        }
      ],
      "name": "transferFrom",
      "outputs": [],
      "payable": true,
      "stateMutability": "payable",
      "type": "function"
    },
    {
      "constant": false,
      "inputs": [
        {
          "internalType": "address",
          "name": "_approved",
          "type": "address"
        },
        {
          "internalType": "uint256",
          "name": "_tokenId",
          "type": "uint256"
        }
      ],
      "name": "approve",
      "outputs": [],
      "payable": true,
      "stateMutability": "payable",
      "type": "function"
    },
    {
      "constant": true,
      "inputs": [],
      "name": "getAllNFTs",
      "outputs": [
        {
          "components": [
            {
              "internalType": "uint256",
              "name": "ID",
              "type": "uint256"
            },
            {
              "internalType": "string",
              "name": "name",
              "type": "string"
            },
            {
              "internalType": "string",
              "name": "NftCategory",
              "type": "string"
            },
            {
              "internalType": "uint256",
              "name": "value",
              "type": "uint256"
            },
            {
              "internalType": "string",
              "name": "artFileUrl",
              "type": "string"
            }
          ],
          "internalType": "struct NFT.Nft[]",
          "name": "",
          "type": "tuple[]"
        }
      ],
      "payable": false,
      "stateMutability": "view",
      "type": "function"
    }
  ],
  "bytecode": "0x608060405234801561001057600080fd5b506111fe806100206000396000f3fe6080604052600436106100865760003560e01c8063d51fe9cb11610059578063d51fe9cb1461013d578063dd297ce81461017a578063e0391b09146101b7578063e602eb3d146101e2578063fb88df181461022357610086565b8063095ea7b31461008b57806323b872dd146100a75780636352211e146100c357806370a0823114610100575b600080fd5b6100a560048036036100a09190810190610cf0565b610260565b005b6100c160048036036100bc9190810190610ca1565b6103b3565b005b3480156100cf57600080fd5b506100ea60048036036100e59190810190610d2c565b610534565b6040516100f79190610fa7565b60405180910390f35b34801561010c57600080fd5b5061012760048036036101229190810190610c78565b610570565b6040516101349190611024565b60405180910390f35b34801561014957600080fd5b50610164600480360361015f9190810190610d2c565b6105b9565b6040516101719190610fa7565b60405180910390f35b34801561018657600080fd5b506101a1600480360361019c9190810190610d2c565b6105ec565b6040516101ae9190610fa7565b60405180910390f35b3480156101c357600080fd5b506101cc61061f565b6040516101d99190610fc2565b60405180910390f35b3480156101ee57600080fd5b5061020960048036036102049190810190610d2c565b610878565b60405161021a95949392919061103f565b60405180910390f35b34801561022f57600080fd5b5061024a60048036036102459190810190610c78565b610a83565b6040516102579190611024565b60405180910390f35b8060008082815260200190815260200160002060009054906101000a900473ffffffffffffffffffffffffffffffffffffffff1673ffffffffffffffffffffffffffffffffffffffff163373ffffffffffffffffffffffffffffffffffffffff1614610301576040517f08c379a00000000000000000000000000000000000000000000000000000000081526004016102f890611004565b60405180910390fd5b826002600084815260200190815260200160002060006101000a81548173ffffffffffffffffffffffffffffffffffffffff021916908373ffffffffffffffffffffffffffffffffffffffff160217905550818373ffffffffffffffffffffffffffffffffffffffff163373ffffffffffffffffffffffffffffffffffffffff167f8c5be1e5ebec7d5bd14f71427d1e84f3dd0314c0f7b2291e5b200ac8c7c3b92560405160405180910390a4505050565b34600382815481106103c157fe5b906000526020600020906005020160030154148061043d57503373ffffffffffffffffffffffffffffffffffffffff166002600083815260200190815260200160002060009054906101000a900473ffffffffffffffffffffffffffffffffffffffff1673ffffffffffffffffffffffffffffffffffffffff16145b61047c576040517f08c379a000000000000000000000000000000000000000000000000000000000815260040161047390610fe4565b60405180910390fd5b610487838383610a9b565b60008390508073ffffffffffffffffffffffffffffffffffffffff166108fc349081150290604051600060405180830381858888f193505050501580156104d2573d6000803e3d6000fd5b50818373ffffffffffffffffffffffffffffffffffffffff168573ffffffffffffffffffffffffffffffffffffffff167fddf252ad1be2c89b69c2b068fc378daa952ba7f163c4a11628f55a4df523b3ef60405160405180910390a450505050565b600080600083815260200190815260200160002060009054906101000a900473ffffffffffffffffffffffffffffffffffffffff169050919050565b6000600160008373ffffffffffffffffffffffffffffffffffffffff1673ffffffffffffffffffffffffffffffffffffffff168152602001908152602001600020549050919050565b60006020528060005260406000206000915054906101000a900473ffffffffffffffffffffffffffffffffffffffff1681565b60026020528060005260406000206000915054906101000a900473ffffffffffffffffffffffffffffffffffffffff1681565b60606003805480602002602001604051908101604052809291908181526020016000905b8282101561086f57838290600052602060002090600502016040518060a001604052908160008201548152602001600182018054600181600116156101000203166002900480601f0160208091040260200160405190810160405280929190818152602001828054600181600116156101000203166002900480156107095780601f106106de57610100808354040283529160200191610709565b820191906000526020600020905b8154815290600101906020018083116106ec57829003601f168201915b50505050508152602001600282018054600181600116156101000203166002900480601f0160208091040260200160405190810160405280929190818152602001828054600181600116156101000203166002900480156107ab5780601f10610780576101008083540402835291602001916107ab565b820191906000526020600020905b81548152906001019060200180831161078e57829003601f168201915b5050505050815260200160038201548152602001600482018054600181600116156101000203166002900480601f0160208091040260200160405190810160405280929190818152602001828054600181600116156101000203166002900480156108575780601f1061082c57610100808354040283529160200191610857565b820191906000526020600020905b81548152906001019060200180831161083a57829003601f168201915b50505050508152505081526020019060010190610643565b50505050905090565b6003818154811061088557fe5b9060005260206000209060050201600091509050806000015490806001018054600181600116156101000203166002900480601f0160208091040260200160405190810160405280929190818152602001828054600181600116156101000203166002900480156109375780601f1061090c57610100808354040283529160200191610937565b820191906000526020600020905b81548152906001019060200180831161091a57829003601f168201915b505050505090806002018054600181600116156101000203166002900480601f0160208091040260200160405190810160405280929190818152602001828054600181600116156101000203166002900480156109d55780601f106109aa576101008083540402835291602001916109d5565b820191906000526020600020905b8154815290600101906020018083116109b857829003601f168201915b505050505090806003015490806004018054600181600116156101000203166002900480601f016020809104026020016040519081016040528092919081815260200182805460018160011615610100020316600290048015610a795780601f10610a4e57610100808354040283529160200191610a79565b820191906000526020600020905b815481529060010190602001808311610a5c57829003601f168201915b5050505050905085565b60016020528060005260406000206000915090505481565b610aed60018060008573ffffffffffffffffffffffffffffffffffffffff1673ffffffffffffffffffffffffffffffffffffffff16815260200190815260200160002054610c1b90919063ffffffff16565b600160008473ffffffffffffffffffffffffffffffffffffffff1673ffffffffffffffffffffffffffffffffffffffff16815260200190815260200160002081905550610b8260018060008673ffffffffffffffffffffffffffffffffffffffff1673ffffffffffffffffffffffffffffffffffffffff16815260200190815260200160002054610c3790919063ffffffff16565b600160008573ffffffffffffffffffffffffffffffffffffffff1673ffffffffffffffffffffffffffffffffffffffff168152602001908152602001600020819055508160008083815260200190815260200160002060006101000a81548173ffffffffffffffffffffffffffffffffffffffff021916908373ffffffffffffffffffffffffffffffffffffffff160217905550505050565b600080828401905083811015610c2d57fe5b8091505092915050565b600082821115610c4357fe5b818303905092915050565b600081359050610c5d8161118d565b92915050565b600081359050610c72816111a4565b92915050565b600060208284031215610c8a57600080fd5b6000610c9884828501610c4e565b91505092915050565b600080600060608486031215610cb657600080fd5b6000610cc486828701610c4e565b9350506020610cd586828701610c4e565b9250506040610ce686828701610c63565b9150509250925092565b60008060408385031215610d0357600080fd5b6000610d1185828601610c4e565b9250506020610d2285828601610c63565b9150509250929050565b600060208284031215610d3e57600080fd5b6000610d4c84828501610c63565b91505092915050565b6000610d618383610f05565b905092915050565b610d728161110d565b82525050565b6000610d83826110b7565b610d8d81856110da565b935083602082028501610d9f856110a7565b8060005b85811015610ddb5784840389528151610dbc8582610d55565b9450610dc7836110cd565b925060208a01995050600181019050610da3565b50829750879550505050505092915050565b6000610df8826110c2565b610e0281856110eb565b9350610e12818560208601611149565b610e1b8161117c565b840191505092915050565b6000610e31826110c2565b610e3b81856110fc565b9350610e4b818560208601611149565b610e548161117c565b840191505092915050565b6000610e6c602e836110fc565b91507f596f7520646f6e2774206861766520656e6f7567682066756e647320666f722060008301527f74686973207472616e73666572210000000000000000000000000000000000006020830152604082019050919050565b6000610ed26017836110fc565b91507f596f7520617265206e6f7420746865206f776e657220210000000000000000006000830152602082019050919050565b600060a083016000830151610f1d6000860182610f89565b5060208301518482036020860152610f358282610ded565b91505060408301518482036040860152610f4f8282610ded565b9150506060830151610f646060860182610f89565b5060808301518482036080860152610f7c8282610ded565b9150508091505092915050565b610f928161113f565b82525050565b610fa18161113f565b82525050565b6000602082019050610fbc6000830184610d69565b92915050565b60006020820190508181036000830152610fdc8184610d78565b905092915050565b60006020820190508181036000830152610ffd81610e5f565b9050919050565b6000602082019050818103600083015261101d81610ec5565b9050919050565b60006020820190506110396000830184610f98565b92915050565b600060a0820190506110546000830188610f98565b81810360208301526110668187610e26565b9050818103604083015261107a8186610e26565b90506110896060830185610f98565b818103608083015261109b8184610e26565b90509695505050505050565b6000819050602082019050919050565b600081519050919050565b600081519050919050565b6000602082019050919050565b600082825260208201905092915050565b600082825260208201905092915050565b600082825260208201905092915050565b60006111188261111f565b9050919050565b600073ffffffffffffffffffffffffffffffffffffffff82169050919050565b6000819050919050565b60005b8381101561116757808201518184015260208101905061114c565b83811115611176576000848401525b50505050565b6000601f19601f8301169050919050565b6111968161110d565b81146111a157600080fd5b50565b6111ad8161113f565b81146111b857600080fd5b5056fea365627a7a7231582086832a527ca0e2a6ef4b7e28af20be11032c82ab7fcead19cad71c5a48801ae36c6578706572696d656e74616cf564736f6c63430005110040",
  "source": "pragma solidity >=0.5.0 <0.6.0;\r\npragma experimental ABIEncoderV2;\r\n\r\nimport \"./erc721.sol\";\r\nimport \"./safemath.sol\";\r\n\r\ncontract NFT is ERC721 {\r\n    using SafeMath for uint256;\r\n\r\n    struct Nft {\r\n        uint256 ID;\r\n        string name;\r\n        string NftCategory; // photograph, digital art,.... (will be set in the front-end)\r\n        uint256 value; // value must be converted to Wei from the front-end\r\n        string artFileUrl; // this a static image file hosted off the chain\r\n    }\r\n\r\n    event NewNFTCreated(uint256 NFTid, string name);\r\n\r\n    mapping(uint256 => address) public NFTOwner;\r\n    mapping(address => uint256) public ownerNFTCount;\r\n    mapping(uint256 => address) public NFTApprovals;\r\n\r\n    Nft[] public NFTsList; // check how large an array can be\r\n\r\n    modifier onlyOwnerOf(uint256 _NFTid) {\r\n        require(msg.sender == NFTOwner[_NFTid],\"You are not the owner !\");\r\n        _;\r\n    }\r\n\r\n    function _mintERC721Token(\r\n        string memory name,\r\n        uint256 value, // in Wei\r\n        string memory category,\r\n        string memory artFileUrl\r\n    ) internal {\r\n        // NFTsList.push() will return an index starting form 1, we want the index to start form 0,1,2,3...\r\n        // To properly address the NFTsList[] we subtract 1 from the push() returned value.\r\n        uint256 NFTid = NFTsList.push(\r\n            Nft(0, name, category, value, artFileUrl)\r\n        ) - 1;\r\n\r\n        NFTsList[NFTid].ID = NFTid;\r\n\r\n        NFTOwner[NFTid] = msg.sender;\r\n\r\n        ownerNFTCount[msg.sender] = ownerNFTCount[msg.sender].add(1);\r\n\r\n        emit NewNFTCreated(NFTid, name);\r\n    }\r\n\r\n    function _transferNFT(\r\n        address _from,\r\n        address _to,\r\n        uint256 _tokenId\r\n    ) private {\r\n        // increase the count of NFTs for the new owner\r\n        ownerNFTCount[_to] = ownerNFTCount[_to].add(1);\r\n\r\n        // decrease the count of NFTs for the old owner\r\n        ownerNFTCount[_from] = ownerNFTCount[_from].sub(1);\r\n\r\n        // set the NFT to point to the new owner's address\r\n        NFTOwner[_tokenId] = _to;\r\n    }\r\n\r\n    function balanceOf(address _owner) external view returns (uint256) {\r\n        return ownerNFTCount[_owner];\r\n    }\r\n\r\n    function ownerOf(uint256 _tokenId) external view returns (address) {\r\n        return NFTOwner[_tokenId];\r\n    }\r\n\r\n    function transferFrom(\r\n        address _from,\r\n        address _to,\r\n        uint256 _tokenId\r\n    ) external payable {\r\n        //1.check if sender send enough ether for the NFT they want to acquire\r\n        // or check if they are pr-approved by the ownersolidity_contracts/contracts/nft.sol\r\n\r\n        require(\r\n            NFTsList[_tokenId].value == msg.value || NFTApprovals[_tokenId] == msg.sender,\r\n                \"You don't have enough funds for this transfer!\"\r\n        );\r\n\r\n        // 2. transfer the NFT to the new owner\r\n        _transferNFT(_from, _to, _tokenId);\r\n\r\n        //3.send the Ether to the previous owner's account\r\n\r\n        //3.1 convert the _from (previous owner's address) to a payable address\r\n\r\n        address payable _oldOwnerAddress = address(uint160(_from));\r\n\r\n        //3.2 transfer the ether to _oldOwnerAddress\r\n        _oldOwnerAddress.transfer(msg.value);\r\n\r\n        //4. emit an event to the front-end indicating that the transfer was a success\r\n        emit Transfer(_from, _to, _tokenId);\r\n    }\r\n\r\n    function approve(address _approved, uint256 _tokenId)\r\n        external\r\n        payable\r\n        onlyOwnerOf(_tokenId)\r\n    {\r\n        NFTApprovals[_tokenId] = _approved;\r\n        emit Approval(msg.sender, _approved, _tokenId);\r\n    }\r\n\r\n    function getAllNFTs() external view returns (Nft[] memory) {\r\n        return NFTsList;\r\n    }\r\n\r\n    // function getNFTsByUser() external view  returns(string memory) {\r\n\r\n    //     // 1. loop over NFTsList:\r\n    //         //search for all the NFTs owner by the caller\r\n\r\n    //         string memory x  = \"565656\";\r\n\r\n    //         // add them to a temporary  array in memory\r\n\r\n    //         return x;\r\n    //         // return the array of Nft objects\r\n\r\n    // }\r\n\r\n    // function getAllNFTs() external view  {\r\n\r\n    //         // return the array of Nft objects\r\n\r\n    //         // ask the question how expensive to call  view func on array of 1000 items\r\n\r\n    //         //how does public key/private get generated when an nft is minted and transferred\r\n\r\n    //         // how does the array works as it gets bigger, expensive amd limits of sizing\r\n\r\n    // }\r\n}\r\n",
  "sourcePath": "C:\\Users\\aelaal01\\source\\repos\\GRAD-ETH-PROJ\\solidity_contracts\\contracts\\nft.sol",
  "compiler": {
    "name": "solc",
    "version": "0.5.17+commit.d19bba13.Emscripten.clang"
  },
  "schemaVersion": "3.4.10",
  "updatedAt": "2022-10-28T13:40:32.804Z",
  "devdoc": {
    "methods": {}
  },
  "userdoc": {
    "methods": {}
  }
}