{
  "contractName": "User",
  "abi": [
    {
      "anonymous": false,
      "inputs": [
        {
          "indexed": true,
          "internalType": "address",
          "name": "_owner",
          "type": "address"
        },
        {
          "indexed": true,
          "internalType": "address",
          "name": "_approved",
          "type": "address"
        },
        {
          "indexed": true,
          "internalType": "uint256",
          "name": "_tokenId",
          "type": "uint256"
        }
      ],
      "name": "Approval",
      "type": "event"
    },
    {
      "anonymous": false,
      "inputs": [
        {
          "indexed": false,
          "internalType": "uint256",
          "name": "NFTid",
          "type": "uint256"
        },
        {
          "indexed": false,
          "internalType": "string",
          "name": "name",
          "type": "string"
        }
      ],
      "name": "NewNFTCreated",
      "type": "event"
    },
    {
      "anonymous": false,
      "inputs": [
        {
          "indexed": true,
          "internalType": "address",
          "name": "previousOwner",
          "type": "address"
        },
        {
          "indexed": true,
          "internalType": "address",
          "name": "newOwner",
          "type": "address"
        }
      ],
      "name": "OwnershipTransferred",
      "type": "event"
    },
    {
      "anonymous": false,
      "inputs": [
        {
          "indexed": true,
          "internalType": "address",
          "name": "_from",
          "type": "address"
        },
        {
          "indexed": true,
          "internalType": "address",
          "name": "_to",
          "type": "address"
        },
        {
          "indexed": true,
          "internalType": "uint256",
          "name": "_tokenId",
          "type": "uint256"
        }
      ],
      "name": "Transfer",
      "type": "event"
    },
    {
      "anonymous": false,
      "inputs": [
        {
          "indexed": false,
          "internalType": "string",
          "name": "stateMsg",
          "type": "string"
        },
        {
          "indexed": false,
          "internalType": "bool",
          "name": "result",
          "type": "bool"
        }
      ],
      "name": "UserCreatedStatus",
      "type": "event"
    },
    {
      "constant": true,
      "inputs": [
        {
          "internalType": "uint256",
          "name": "",
          "type": "uint256"
        }
      ],
      "name": "NFTApprovals",
      "outputs": [
        {
          "internalType": "address",
          "name": "",
          "type": "address"
        }
      ],
      "payable": false,
      "stateMutability": "view",
      "type": "function"
    },
    {
      "constant": true,
      "inputs": [
        {
          "internalType": "uint256",
          "name": "",
          "type": "uint256"
        }
      ],
      "name": "NFTOwner",
      "outputs": [
        {
          "internalType": "address",
          "name": "",
          "type": "address"
        }
      ],
      "payable": false,
      "stateMutability": "view",
      "type": "function"
    },
    {
      "constant": true,
      "inputs": [
        {
          "internalType": "uint256",
          "name": "",
          "type": "uint256"
        }
      ],
      "name": "NFTsList",
      "outputs": [
        {
          "internalType": "uint256",
          "name": "ID",
          "type": "uint256"
        },
        {
          "internalType": "string",
          "name": "name",
          "type": "string"
        },
        {
          "internalType": "string",
          "name": "NftCategory",
          "type": "string"
        },
        {
          "internalType": "uint256",
          "name": "value",
          "type": "uint256"
        },
        {
          "internalType": "string",
          "name": "artFileUrl",
          "type": "string"
        }
      ],
      "payable": false,
      "stateMutability": "view",
      "type": "function"
    },
    {
      "constant": false,
      "inputs": [
        {
          "internalType": "address",
          "name": "_approved",
          "type": "address"
        },
        {
          "internalType": "uint256",
          "name": "_tokenId",
          "type": "uint256"
        }
      ],
      "name": "approve",
      "outputs": [],
      "payable": true,
      "stateMutability": "payable",
      "type": "function"
    },
    {
      "constant": true,
      "inputs": [
        {
          "internalType": "address",
          "name": "_owner",
          "type": "address"
        }
      ],
      "name": "balanceOf",
      "outputs": [
        {
          "internalType": "uint256",
          "name": "",
          "type": "uint256"
        }
      ],
      "payable": false,
      "stateMutability": "view",
      "type": "function"
    },
    {
      "constant": true,
      "inputs": [],
      "name": "getAllNFTs",
      "outputs": [
        {
          "components": [
            {
              "internalType": "uint256",
              "name": "ID",
              "type": "uint256"
            },
            {
              "internalType": "string",
              "name": "name",
              "type": "string"
            },
            {
              "internalType": "string",
              "name": "NftCategory",
              "type": "string"
            },
            {
              "internalType": "uint256",
              "name": "value",
              "type": "uint256"
            },
            {
              "internalType": "string",
              "name": "artFileUrl",
              "type": "string"
            }
          ],
          "internalType": "struct NFT.Nft[]",
          "name": "",
          "type": "tuple[]"
        }
      ],
      "payable": false,
      "stateMutability": "view",
      "type": "function"
    },
    {
      "constant": true,
      "inputs": [],
      "name": "isOwner",
      "outputs": [
        {
          "internalType": "bool",
          "name": "",
          "type": "bool"
        }
      ],
      "payable": false,
      "stateMutability": "view",
      "type": "function"
    },
    {
      "constant": true,
      "inputs": [],
      "name": "owner",
      "outputs": [
        {
          "internalType": "address",
          "name": "",
          "type": "address"
        }
      ],
      "payable": false,
      "stateMutability": "view",
      "type": "function"
    },
    {
      "constant": true,
      "inputs": [
        {
          "internalType": "address",
          "name": "",
          "type": "address"
        }
      ],
      "name": "ownerNFTCount",
      "outputs": [
        {
          "internalType": "uint256",
          "name": "",
          "type": "uint256"
        }
      ],
      "payable": false,
      "stateMutability": "view",
      "type": "function"
    },
    {
      "constant": true,
      "inputs": [
        {
          "internalType": "uint256",
          "name": "_tokenId",
          "type": "uint256"
        }
      ],
      "name": "ownerOf",
      "outputs": [
        {
          "internalType": "address",
          "name": "",
          "type": "address"
        }
      ],
      "payable": false,
      "stateMutability": "view",
      "type": "function"
    },
    {
      "constant": false,
      "inputs": [],
      "name": "renounceOwnership",
      "outputs": [],
      "payable": false,
      "stateMutability": "nonpayable",
      "type": "function"
    },
    {
      "constant": false,
      "inputs": [
        {
          "internalType": "address",
          "name": "_from",
          "type": "address"
        },
        {
          "internalType": "address",
          "name": "_to",
          "type": "address"
        },
        {
          "internalType": "uint256",
          "name": "_tokenId",
          "type": "uint256"
        }
      ],
      "name": "transferFrom",
      "outputs": [],
      "payable": true,
      "stateMutability": "payable",
      "type": "function"
    },
    {
      "constant": false,
      "inputs": [
        {
          "internalType": "address",
          "name": "newOwner",
          "type": "address"
        }
      ],
      "name": "transferOwnership",
      "outputs": [],
      "payable": false,
      "stateMutability": "nonpayable",
      "type": "function"
    },
    {
      "constant": true,
      "inputs": [
        {
          "internalType": "address",
          "name": "",
          "type": "address"
        }
      ],
      "name": "users",
      "outputs": [
        {
          "internalType": "string",
          "name": "userName",
          "type": "string"
        },
        {
          "internalType": "bool",
          "name": "exist",
          "type": "bool"
        },
        {
          "internalType": "uint256",
          "name": "mintingLimit",
          "type": "uint256"
        },
        {
          "internalType": "address",
          "name": "account",
          "type": "address"
        }
      ],
      "payable": false,
      "stateMutability": "view",
      "type": "function"
    },
    {
      "constant": true,
      "inputs": [],
      "name": "getUserData",
      "outputs": [
        {
          "components": [
            {
              "internalType": "string",
              "name": "userName",
              "type": "string"
            },
            {
              "internalType": "bool",
              "name": "exist",
              "type": "bool"
            },
            {
              "internalType": "uint256",
              "name": "mintingLimit",
              "type": "uint256"
            },
            {
              "internalType": "address",
              "name": "account",
              "type": "address"
            }
          ],
          "internalType": "struct User.UserData",
          "name": "",
          "type": "tuple"
        }
      ],
      "payable": false,
      "stateMutability": "view",
      "type": "function"
    },
    {
      "constant": false,
      "inputs": [
        {
          "internalType": "string",
          "name": "name",
          "type": "string"
        },
        {
          "internalType": "uint256",
          "name": "value",
          "type": "uint256"
        },
        {
          "internalType": "string",
          "name": "category",
          "type": "string"
        },
        {
          "internalType": "string",
          "name": "artFileUrl",
          "type": "string"
        },
        {
          "internalType": "string",
          "name": "userName",
          "type": "string"
        }
      ],
      "name": "createNewNFT",
      "outputs": [],
      "payable": false,
      "stateMutability": "nonpayable",
      "type": "function"
    }
  ],
  "bytecode": "0x608060405233600460006101000a81548173ffffffffffffffffffffffffffffffffffffffff021916908373ffffffffffffffffffffffffffffffffffffffff160217905550600460009054906101000a900473ffffffffffffffffffffffffffffffffffffffff1673ffffffffffffffffffffffffffffffffffffffff16600073ffffffffffffffffffffffffffffffffffffffff167f8be0079c531659141344cd1fd0a4f28419497f9722a3daafe3b4186f6b6457e060405160405180910390a361224f806100d16000396000f3fe6080604052600436106100f35760003560e01c8063a87430ba1161008a578063e0391b0911610059578063e0391b0914610325578063e602eb3d14610350578063f2fde38b14610391578063fb88df18146103ba576100f3565b8063a87430ba14610242578063caa56c6d14610282578063d51fe9cb146102ab578063dd297ce8146102e8576100f3565b806370a08231116100c657806370a0823114610198578063715018a6146101d55780638da5cb5b146101ec5780638f32d59b14610217576100f3565b8063095ea7b3146100f857806322e8c87d1461011457806323b872dd1461013f5780636352211e1461015b575b600080fd5b610112600480360361010d919081019061198d565b6103f7565b005b34801561012057600080fd5b5061012961054a565b6040516101369190611fa4565b60405180910390f35b6101596004803603610154919081019061193e565b6106be565b005b34801561016757600080fd5b50610182600480360361017d9190810190611aa0565b61083f565b60405161018f9190611e64565b60405180910390f35b3480156101a457600080fd5b506101bf60048036036101ba9190810190611915565b61087b565b6040516101cc9190611fc6565b60405180910390f35b3480156101e157600080fd5b506101ea6108c4565b005b3480156101f857600080fd5b50610201610996565b60405161020e9190611e64565b60405180910390f35b34801561022357600080fd5b5061022c6109c0565b6040516102399190611ea1565b60405180910390f35b34801561024e57600080fd5b5061026960048036036102649190810190611915565b610a18565b6040516102799493929190611ebc565b60405180910390f35b34801561028e57600080fd5b506102a960048036036102a491908101906119c9565b610b0d565b005b3480156102b757600080fd5b506102d260048036036102cd9190810190611aa0565b610bb7565b6040516102df9190611e64565b60405180910390f35b3480156102f457600080fd5b5061030f600480360361030a9190810190611aa0565b610bea565b60405161031c9190611e64565b60405180910390f35b34801561033157600080fd5b5061033a610c1d565b6040516103479190611e7f565b60405180910390f35b34801561035c57600080fd5b5061037760048036036103729190810190611aa0565b610e76565b604051610388959493929190612011565b60405180910390f35b34801561039d57600080fd5b506103b860048036036103b39190810190611915565b611081565b005b3480156103c657600080fd5b506103e160048036036103dc9190810190611915565b61109e565b6040516103ee9190611fc6565b60405180910390f35b8060008082815260200190815260200160002060009054906101000a900473ffffffffffffffffffffffffffffffffffffffff1673ffffffffffffffffffffffffffffffffffffffff163373ffffffffffffffffffffffffffffffffffffffff1614610498576040517f08c379a000000000000000000000000000000000000000000000000000000000815260040161048f90611f56565b60405180910390fd5b826002600084815260200190815260200160002060006101000a81548173ffffffffffffffffffffffffffffffffffffffff021916908373ffffffffffffffffffffffffffffffffffffffff160217905550818373ffffffffffffffffffffffffffffffffffffffff163373ffffffffffffffffffffffffffffffffffffffff167f8c5be1e5ebec7d5bd14f71427d1e84f3dd0314c0f7b2291e5b200ac8c7c3b92560405160405180910390a4505050565b6105526117b2565b600560003373ffffffffffffffffffffffffffffffffffffffff1673ffffffffffffffffffffffffffffffffffffffff168152602001908152602001600020604051806080016040529081600082018054600181600116156101000203166002900480601f0160208091040260200160405190810160405280929190818152602001828054600181600116156101000203166002900480156106355780601f1061060a57610100808354040283529160200191610635565b820191906000526020600020905b81548152906001019060200180831161061857829003601f168201915b505050505081526020016001820160009054906101000a900460ff16151515158152602001600282015481526020016003820160009054906101000a900473ffffffffffffffffffffffffffffffffffffffff1673ffffffffffffffffffffffffffffffffffffffff1673ffffffffffffffffffffffffffffffffffffffff1681525050905090565b34600382815481106106cc57fe5b906000526020600020906005020160030154148061074857503373ffffffffffffffffffffffffffffffffffffffff166002600083815260200190815260200160002060009054906101000a900473ffffffffffffffffffffffffffffffffffffffff1673ffffffffffffffffffffffffffffffffffffffff16145b610787576040517f08c379a000000000000000000000000000000000000000000000000000000000815260040161077e90611f08565b60405180910390fd5b6107928383836110b6565b60008390508073ffffffffffffffffffffffffffffffffffffffff166108fc349081150290604051600060405180830381858888f193505050501580156107dd573d6000803e3d6000fd5b50818373ffffffffffffffffffffffffffffffffffffffff168573ffffffffffffffffffffffffffffffffffffffff167fddf252ad1be2c89b69c2b068fc378daa952ba7f163c4a11628f55a4df523b3ef60405160405180910390a450505050565b600080600083815260200190815260200160002060009054906101000a900473ffffffffffffffffffffffffffffffffffffffff169050919050565b6000600160008373ffffffffffffffffffffffffffffffffffffffff1673ffffffffffffffffffffffffffffffffffffffff168152602001908152602001600020549050919050565b6108cc6109c0565b6108d557600080fd5b600073ffffffffffffffffffffffffffffffffffffffff16600460009054906101000a900473ffffffffffffffffffffffffffffffffffffffff1673ffffffffffffffffffffffffffffffffffffffff167f8be0079c531659141344cd1fd0a4f28419497f9722a3daafe3b4186f6b6457e060405160405180910390a36000600460006101000a81548173ffffffffffffffffffffffffffffffffffffffff021916908373ffffffffffffffffffffffffffffffffffffffff160217905550565b6000600460009054906101000a900473ffffffffffffffffffffffffffffffffffffffff16905090565b6000600460009054906101000a900473ffffffffffffffffffffffffffffffffffffffff1673ffffffffffffffffffffffffffffffffffffffff163373ffffffffffffffffffffffffffffffffffffffff1614905090565b6005602052806000526040600020600091509050806000018054600181600116156101000203166002900480601f016020809104026020016040519081016040528092919081815260200182805460018160011615610100020316600290048015610ac45780601f10610a9957610100808354040283529160200191610ac4565b820191906000526020600020905b815481529060010190602001808311610aa757829003601f168201915b5050505050908060010160009054906101000a900460ff16908060020154908060030160009054906101000a900473ffffffffffffffffffffffffffffffffffffffff16905084565b600560003373ffffffffffffffffffffffffffffffffffffffff1673ffffffffffffffffffffffffffffffffffffffff16815260200190815260200160002060020154600160003373ffffffffffffffffffffffffffffffffffffffff1673ffffffffffffffffffffffffffffffffffffffff168152602001908152602001600020541115610b9b57600080fd5b610ba481611236565b610bb085858585611314565b5050505050565b60006020528060005260406000206000915054906101000a900473ffffffffffffffffffffffffffffffffffffffff1681565b60026020528060005260406000206000915054906101000a900473ffffffffffffffffffffffffffffffffffffffff1681565b60606003805480602002602001604051908101604052809291908181526020016000905b82821015610e6d57838290600052602060002090600502016040518060a001604052908160008201548152602001600182018054600181600116156101000203166002900480601f016020809104026020016040519081016040528092919081815260200182805460018160011615610100020316600290048015610d075780601f10610cdc57610100808354040283529160200191610d07565b820191906000526020600020905b815481529060010190602001808311610cea57829003601f168201915b50505050508152602001600282018054600181600116156101000203166002900480601f016020809104026020016040519081016040528092919081815260200182805460018160011615610100020316600290048015610da95780601f10610d7e57610100808354040283529160200191610da9565b820191906000526020600020905b815481529060010190602001808311610d8c57829003601f168201915b5050505050815260200160038201548152602001600482018054600181600116156101000203166002900480601f016020809104026020016040519081016040528092919081815260200182805460018160011615610100020316600290048015610e555780601f10610e2a57610100808354040283529160200191610e55565b820191906000526020600020905b815481529060010190602001808311610e3857829003601f168201915b50505050508152505081526020019060010190610c41565b50505050905090565b60038181548110610e8357fe5b9060005260206000209060050201600091509050806000015490806001018054600181600116156101000203166002900480601f016020809104026020016040519081016040528092919081815260200182805460018160011615610100020316600290048015610f355780601f10610f0a57610100808354040283529160200191610f35565b820191906000526020600020905b815481529060010190602001808311610f1857829003601f168201915b505050505090806002018054600181600116156101000203166002900480601f016020809104026020016040519081016040528092919081815260200182805460018160011615610100020316600290048015610fd35780601f10610fa857610100808354040283529160200191610fd3565b820191906000526020600020905b815481529060010190602001808311610fb657829003601f168201915b505050505090806003015490806004018054600181600116156101000203166002900480601f0160208091040260200160405190810160405280929190818152602001828054600181600116156101000203166002900480156110775780601f1061104c57610100808354040283529160200191611077565b820191906000526020600020905b81548152906001019060200180831161105a57829003601f168201915b5050505050905085565b6110896109c0565b61109257600080fd5b61109b81611526565b50565b60016020528060005260406000206000915090505481565b61110860018060008573ffffffffffffffffffffffffffffffffffffffff1673ffffffffffffffffffffffffffffffffffffffff1681526020019081526020016000205461162090919063ffffffff16565b600160008473ffffffffffffffffffffffffffffffffffffffff1673ffffffffffffffffffffffffffffffffffffffff1681526020019081526020016000208190555061119d60018060008673ffffffffffffffffffffffffffffffffffffffff1673ffffffffffffffffffffffffffffffffffffffff1681526020019081526020016000205461163c90919063ffffffff16565b600160008573ffffffffffffffffffffffffffffffffffffffff1673ffffffffffffffffffffffffffffffffffffffff168152602001908152602001600020819055508160008083815260200190815260200160002060006101000a81548173ffffffffffffffffffffffffffffffffffffffff021916908373ffffffffffffffffffffffffffffffffffffffff160217905550505050565b60001515600560003373ffffffffffffffffffffffffffffffffffffffff1673ffffffffffffffffffffffffffffffffffffffff16815260200190815260200160002060010160009054906101000a900460ff16151514156112d85761129b81611653565b7f498e86ce68b74d646cb38349145e0faf33df652ddb4c63ebdbfb77082e620c9060016040516112cb9190611f76565b60405180910390a1611311565b7f498e86ce68b74d646cb38349145e0faf33df652ddb4c63ebdbfb77082e620c9060006040516113089190611f28565b60405180910390a15b50565b6000600160036040518060a001604052806000815260200188815260200186815260200187815260200185815250908060018154018082558091505090600182039060005260206000209060050201600090919290919091506000820151816000015560208201518160010190805190602001906113939291906117f2565b5060408201518160020190805190602001906113b09291906117f2565b506060820151816003015560808201518160040190805190602001906113d79291906117f2565b50505003905080600382815481106113eb57fe5b9060005260206000209060050201600001819055503360008083815260200190815260200160002060006101000a81548173ffffffffffffffffffffffffffffffffffffffff021916908373ffffffffffffffffffffffffffffffffffffffff1602179055506114a360018060003373ffffffffffffffffffffffffffffffffffffffff1673ffffffffffffffffffffffffffffffffffffffff1681526020019081526020016000205461162090919063ffffffff16565b600160003373ffffffffffffffffffffffffffffffffffffffff1673ffffffffffffffffffffffffffffffffffffffff168152602001908152602001600020819055507ff3516922ab7b85da7be501737934fc735e896c9a5685afafa68a7680ba6feed08186604051611517929190611fe1565b60405180910390a15050505050565b600073ffffffffffffffffffffffffffffffffffffffff168173ffffffffffffffffffffffffffffffffffffffff16141561156057600080fd5b8073ffffffffffffffffffffffffffffffffffffffff16600460009054906101000a900473ffffffffffffffffffffffffffffffffffffffff1673ffffffffffffffffffffffffffffffffffffffff167f8be0079c531659141344cd1fd0a4f28419497f9722a3daafe3b4186f6b6457e060405160405180910390a380600460006101000a81548173ffffffffffffffffffffffffffffffffffffffff021916908373ffffffffffffffffffffffffffffffffffffffff16021790555050565b60008082840190508381101561163257fe5b8091505092915050565b60008282111561164857fe5b818303905092915050565b61165b6117b2565b6040518060800160405280838152602001600115158152602001600481526020013373ffffffffffffffffffffffffffffffffffffffff16815250905080600560003373ffffffffffffffffffffffffffffffffffffffff1673ffffffffffffffffffffffffffffffffffffffff16815260200190815260200160002060008201518160000190805190602001906116f49291906117f2565b5060208201518160010160006101000a81548160ff0219169083151502179055506040820151816002015560608201518160030160006101000a81548173ffffffffffffffffffffffffffffffffffffffff021916908373ffffffffffffffffffffffffffffffffffffffff1602179055509050506000600160003373ffffffffffffffffffffffffffffffffffffffff1673ffffffffffffffffffffffffffffffffffffffff168152602001908152602001600020819055505050565b60405180608001604052806060815260200160001515815260200160008152602001600073ffffffffffffffffffffffffffffffffffffffff1681525090565b828054600181600116156101000203166002900490600052602060002090601f016020900481019282601f1061183357805160ff1916838001178555611861565b82800160010185558215611861579182015b82811115611860578251825591602001919060010190611845565b5b50905061186e9190611872565b5090565b61189491905b80821115611890576000816000905550600101611878565b5090565b90565b6000813590506118a6816121de565b92915050565b600082601f8301126118bd57600080fd5b81356118d06118cb826120a6565b612079565b915080825260208301602083018583830111156118ec57600080fd5b6118f783828461218b565b50505092915050565b60008135905061190f816121f5565b92915050565b60006020828403121561192757600080fd5b600061193584828501611897565b91505092915050565b60008060006060848603121561195357600080fd5b600061196186828701611897565b935050602061197286828701611897565b925050604061198386828701611900565b9150509250925092565b600080604083850312156119a057600080fd5b60006119ae85828601611897565b92505060206119bf85828601611900565b9150509250929050565b600080600080600060a086880312156119e157600080fd5b600086013567ffffffffffffffff8111156119fb57600080fd5b611a07888289016118ac565b9550506020611a1888828901611900565b945050604086013567ffffffffffffffff811115611a3557600080fd5b611a41888289016118ac565b935050606086013567ffffffffffffffff811115611a5e57600080fd5b611a6a888289016118ac565b925050608086013567ffffffffffffffff811115611a8757600080fd5b611a93888289016118ac565b9150509295509295909350565b600060208284031215611ab257600080fd5b6000611ac084828501611900565b91505092915050565b6000611ad58383611d5f565b905092915050565b611ae681612143565b82525050565b611af581612143565b82525050565b6000611b06826120e2565b611b108185612110565b935083602082028501611b22856120d2565b8060005b85811015611b5e5784840389528151611b3f8582611ac9565b9450611b4a83612103565b925060208a01995050600181019050611b26565b50829750879550505050505092915050565b611b7981612155565b82525050565b611b8881612155565b82525050565b6000611b99826120f8565b611ba38185612132565b9350611bb381856020860161219a565b611bbc816121cd565b840191505092915050565b6000611bd2826120ed565b611bdc8185612121565b9350611bec81856020860161219a565b611bf5816121cd565b840191505092915050565b6000611c0b826120ed565b611c158185612132565b9350611c2581856020860161219a565b611c2e816121cd565b840191505092915050565b6000611c46602e83612132565b91507f596f7520646f6e2774206861766520656e6f7567682066756e647320666f722060008301527f74686973207472616e73666572210000000000000000000000000000000000006020830152604082019050919050565b6000611cac600d83612132565b91507f55736572206578697374732021000000000000000000000000000000000000006000830152602082019050919050565b6000611cec601783612132565b91507f596f7520617265206e6f7420746865206f776e657220210000000000000000006000830152602082019050919050565b6000611d2c601183612132565b91507f4e657720557365722043726561746564210000000000000000000000000000006000830152602082019050919050565b600060a083016000830151611d776000860182611e46565b5060208301518482036020860152611d8f8282611bc7565b91505060408301518482036040860152611da98282611bc7565b9150506060830151611dbe6060860182611e46565b5060808301518482036080860152611dd68282611bc7565b9150508091505092915050565b60006080830160008301518482036000860152611e008282611bc7565b9150506020830151611e156020860182611b70565b506040830151611e286040860182611e46565b506060830151611e3b6060860182611add565b508091505092915050565b611e4f81612181565b82525050565b611e5e81612181565b82525050565b6000602082019050611e796000830184611aec565b92915050565b60006020820190508181036000830152611e998184611afb565b905092915050565b6000602082019050611eb66000830184611b7f565b92915050565b60006080820190508181036000830152611ed68187611c00565b9050611ee56020830186611b7f565b611ef26040830185611e55565b611eff6060830184611aec565b95945050505050565b60006020820190508181036000830152611f2181611c39565b9050919050565b60006040820190508181036000830152611f4181611c9f565b9050611f506020830184611b7f565b92915050565b60006020820190508181036000830152611f6f81611cdf565b9050919050565b60006040820190508181036000830152611f8f81611d1f565b9050611f9e6020830184611b7f565b92915050565b60006020820190508181036000830152611fbe8184611de3565b905092915050565b6000602082019050611fdb6000830184611e55565b92915050565b6000604082019050611ff66000830185611e55565b81810360208301526120088184611b8e565b90509392505050565b600060a0820190506120266000830188611e55565b81810360208301526120388187611c00565b9050818103604083015261204c8186611c00565b905061205b6060830185611e55565b818103608083015261206d8184611c00565b90509695505050505050565b6000604051905081810181811067ffffffffffffffff8211171561209c57600080fd5b8060405250919050565b600067ffffffffffffffff8211156120bd57600080fd5b601f19601f8301169050602081019050919050565b6000819050602082019050919050565b600081519050919050565b600081519050919050565b600081519050919050565b6000602082019050919050565b600082825260208201905092915050565b600082825260208201905092915050565b600082825260208201905092915050565b600061214e82612161565b9050919050565b60008115159050919050565b600073ffffffffffffffffffffffffffffffffffffffff82169050919050565b6000819050919050565b82818337600083830152505050565b60005b838110156121b857808201518184015260208101905061219d565b838111156121c7576000848401525b50505050565b6000601f19601f8301169050919050565b6121e781612143565b81146121f257600080fd5b50565b6121fe81612181565b811461220957600080fd5b5056fea365627a7a72315820cabac3fb909e86a759a83ad92170b12146cdab29e47fa21799f355d729fd03336c6578706572696d656e74616cf564736f6c63430005110040",
  "source": "pragma solidity >=0.5.0 <0.6.0;\r\npragma experimental ABIEncoderV2;\r\n\r\nimport \"./nft.sol\";\r\nimport \"./ownable.sol\";\r\n\r\n\r\ncontract User is NFT, Ownable{\r\n\r\n\r\n    event UserCreatedStatus(string stateMsg,bool result);\r\n\r\n    // user data structure\r\n    struct UserData {\r\n        string userName; // a user nickname\r\n\r\n        // Useful for checking if an object already exist in users. Must be set to true at UserData object creation time.\r\n        bool exist; \r\n        uint256 mintingLimit;\r\n        address account;\r\n    }\r\n\r\n    // mapping to store a User object for the user that created it.\r\n    mapping(address => UserData) public users;\r\n\r\n    /**\r\n     *\r\n     * @dev Function to create a new user and add them to the users mapping\r\n     */\r\n    function _createUser(string memory _name) private {\r\n\r\n        UserData memory user = UserData(_name,true,4,msg.sender);\r\n\r\n        users[msg.sender] = user;\r\n\r\n        ownerNFTCount[msg.sender] = 0;\r\n\r\n    }\r\n\r\n    /**\r\n\r\n     * @dev Function to retrieve an existing user data\r\n     */\r\n\r\n    function getUserData()\r\n        public\r\n        view\r\n        returns (UserData memory)\r\n    {\r\n        return (users[msg.sender]);\r\n    }\r\n\r\n    /**\r\n     *\r\n     * @dev Function to create a new user and add them to the users mapping if they don't exist\r\n     * @return true if the user was added\r\n     * @return false if the user already exists\r\n     */\r\n\r\n    function CheckAndCreateUser(string memory _name) private  {\r\n\r\n\r\n        if (users[msg.sender].exist == false) {\r\n            _createUser(_name);\r\n\r\n            emit UserCreatedStatus(\"New User Created!\",true);\r\n         \r\n        } else {\r\n            \r\n             emit UserCreatedStatus(\"User exists !\",false);\r\n\r\n        }\r\n        \r\n    }\r\n\r\n    /**\r\n     *\r\n     * @dev Function to create a new NFT for a user calling this function\r\n     */\r\n    function createNewNFT(\r\n        string memory name,\r\n        uint256 value, \r\n        string memory category,\r\n        string memory artFileUrl,\r\n        string memory userName\r\n    ) public {\r\n        // make sure the user hasn't passed the limit of how many NFTs they can mint\r\n        // the limit can be adjust later based on the user activity\r\n        require(ownerNFTCount[msg.sender] <= users[msg.sender].mintingLimit);\r\n\r\n        CheckAndCreateUser(userName);\r\n\r\n\r\n        _mintERC721Token(name, value, category, artFileUrl);\r\n    }\r\n}\r\n",
  "sourcePath": "C:\\Users\\aelaal01\\source\\repos\\GRAD-ETH-PROJ\\solidity_contracts\\contracts\\user.sol",
  "compiler": {
    "name": "solc",
    "version": "0.5.17+commit.d19bba13.Emscripten.clang"
  },
  "schemaVersion": "3.4.10",
  "updatedAt": "2022-10-28T13:40:34.429Z",
  "networkType": "ethereum",
  "devdoc": {
    "methods": {
      "createNewNFT(string,uint256,string,string,string)": {
        "details": "Function to create a new NFT for a user calling this function"
      },
      "getUserData()": {
        "details": "Function to retrieve an existing user data"
      },
      "isOwner()": {
        "return": "true if `msg.sender` is the owner of the contract."
      },
      "owner()": {
        "return": "the address of the owner."
      },
      "renounceOwnership()": {
        "details": "Allows the current owner to relinquish control of the contract."
      },
      "transferOwnership(address)": {
        "details": "Allows the current owner to transfer control of the contract to a newOwner.",
        "params": {
          "newOwner": "The address to transfer ownership to."
        }
      }
    }
  },
  "userdoc": {
    "methods": {
      "renounceOwnership()": {
        "notice": "Renouncing to ownership will leave the contract without an owner. It will not be possible to call the functions with the `onlyOwner` modifier anymore."
      }
    }
  }
}