{
  "contractName": "User",
  "abi": [
    {
      "anonymous": false,
      "inputs": [
        {
          "indexed": true,
          "internalType": "address",
          "name": "_owner",
          "type": "address"
        },
        {
          "indexed": true,
          "internalType": "address",
          "name": "_approved",
          "type": "address"
        },
        {
          "indexed": true,
          "internalType": "uint256",
          "name": "_tokenId",
          "type": "uint256"
        }
      ],
      "name": "Approval",
      "type": "event"
    },
    {
      "anonymous": false,
      "inputs": [
        {
          "indexed": false,
          "internalType": "uint256",
          "name": "NFTid",
          "type": "uint256"
        },
        {
          "indexed": false,
          "internalType": "string",
          "name": "name",
          "type": "string"
        }
      ],
      "name": "NewNFTCreated",
      "type": "event"
    },
    {
      "anonymous": false,
      "inputs": [
        {
          "indexed": true,
          "internalType": "address",
          "name": "previousOwner",
          "type": "address"
        },
        {
          "indexed": true,
          "internalType": "address",
          "name": "newOwner",
          "type": "address"
        }
      ],
      "name": "OwnershipTransferred",
      "type": "event"
    },
    {
      "anonymous": false,
      "inputs": [
        {
          "indexed": true,
          "internalType": "address",
          "name": "_from",
          "type": "address"
        },
        {
          "indexed": true,
          "internalType": "address",
          "name": "_to",
          "type": "address"
        },
        {
          "indexed": true,
          "internalType": "uint256",
          "name": "_tokenId",
          "type": "uint256"
        }
      ],
      "name": "Transfer",
      "type": "event"
    },
    {
      "anonymous": false,
      "inputs": [
        {
          "indexed": false,
          "internalType": "string",
          "name": "stateMsg",
          "type": "string"
        },
        {
          "indexed": false,
          "internalType": "bool",
          "name": "result",
          "type": "bool"
        }
      ],
      "name": "UserCreatedStatus",
      "type": "event"
    },
    {
      "constant": true,
      "inputs": [
        {
          "internalType": "uint256",
          "name": "",
          "type": "uint256"
        }
      ],
      "name": "NFTApprovals",
      "outputs": [
        {
          "internalType": "address",
          "name": "",
          "type": "address"
        }
      ],
      "payable": false,
      "stateMutability": "view",
      "type": "function"
    },
    {
      "constant": true,
      "inputs": [
        {
          "internalType": "uint256",
          "name": "",
          "type": "uint256"
        }
      ],
      "name": "NFTOwner",
      "outputs": [
        {
          "internalType": "address",
          "name": "",
          "type": "address"
        }
      ],
      "payable": false,
      "stateMutability": "view",
      "type": "function"
    },
    {
      "constant": true,
      "inputs": [
        {
          "internalType": "uint256",
          "name": "",
          "type": "uint256"
        }
      ],
      "name": "NFTsList",
      "outputs": [
        {
          "internalType": "uint256",
          "name": "ID",
          "type": "uint256"
        },
        {
          "internalType": "string",
          "name": "name",
          "type": "string"
        },
        {
          "internalType": "string",
          "name": "NftCategory",
          "type": "string"
        },
        {
          "internalType": "uint256",
          "name": "value",
          "type": "uint256"
        },
        {
          "internalType": "string",
          "name": "artFileUrl",
          "type": "string"
        }
      ],
      "payable": false,
      "stateMutability": "view",
      "type": "function"
    },
    {
      "constant": false,
      "inputs": [
        {
          "internalType": "address",
          "name": "_approved",
          "type": "address"
        },
        {
          "internalType": "uint256",
          "name": "_tokenId",
          "type": "uint256"
        }
      ],
      "name": "approve",
      "outputs": [],
      "payable": true,
      "stateMutability": "payable",
      "type": "function"
    },
    {
      "constant": true,
      "inputs": [
        {
          "internalType": "address",
          "name": "_owner",
          "type": "address"
        }
      ],
      "name": "balanceOf",
      "outputs": [
        {
          "internalType": "uint256",
          "name": "",
          "type": "uint256"
        }
      ],
      "payable": false,
      "stateMutability": "view",
      "type": "function"
    },
    {
      "constant": true,
      "inputs": [],
      "name": "getAllNFTs",
      "outputs": [
        {
          "components": [
            {
              "internalType": "uint256",
              "name": "ID",
              "type": "uint256"
            },
            {
              "internalType": "string",
              "name": "name",
              "type": "string"
            },
            {
              "internalType": "string",
              "name": "NftCategory",
              "type": "string"
            },
            {
              "internalType": "uint256",
              "name": "value",
              "type": "uint256"
            },
            {
              "internalType": "string",
              "name": "artFileUrl",
              "type": "string"
            }
          ],
          "internalType": "struct NFT.Nft[]",
          "name": "",
          "type": "tuple[]"
        }
      ],
      "payable": false,
      "stateMutability": "view",
      "type": "function"
    },
    {
      "constant": true,
      "inputs": [],
      "name": "isOwner",
      "outputs": [
        {
          "internalType": "bool",
          "name": "",
          "type": "bool"
        }
      ],
      "payable": false,
      "stateMutability": "view",
      "type": "function"
    },
    {
      "constant": true,
      "inputs": [],
      "name": "owner",
      "outputs": [
        {
          "internalType": "address",
          "name": "",
          "type": "address"
        }
      ],
      "payable": false,
      "stateMutability": "view",
      "type": "function"
    },
    {
      "constant": true,
      "inputs": [
        {
          "internalType": "address",
          "name": "",
          "type": "address"
        }
      ],
      "name": "ownerNFTCount",
      "outputs": [
        {
          "internalType": "uint256",
          "name": "",
          "type": "uint256"
        }
      ],
      "payable": false,
      "stateMutability": "view",
      "type": "function"
    },
    {
      "constant": true,
      "inputs": [
        {
          "internalType": "uint256",
          "name": "_tokenId",
          "type": "uint256"
        }
      ],
      "name": "ownerOf",
      "outputs": [
        {
          "internalType": "address",
          "name": "",
          "type": "address"
        }
      ],
      "payable": false,
      "stateMutability": "view",
      "type": "function"
    },
    {
      "constant": false,
      "inputs": [],
      "name": "renounceOwnership",
      "outputs": [],
      "payable": false,
      "stateMutability": "nonpayable",
      "type": "function"
    },
    {
      "constant": false,
      "inputs": [
        {
          "internalType": "address",
          "name": "_from",
          "type": "address"
        },
        {
          "internalType": "address",
          "name": "_to",
          "type": "address"
        },
        {
          "internalType": "uint256",
          "name": "_tokenId",
          "type": "uint256"
        }
      ],
      "name": "transferFrom",
      "outputs": [],
      "payable": true,
      "stateMutability": "payable",
      "type": "function"
    },
    {
      "constant": false,
      "inputs": [
        {
          "internalType": "address",
          "name": "newOwner",
          "type": "address"
        }
      ],
      "name": "transferOwnership",
      "outputs": [],
      "payable": false,
      "stateMutability": "nonpayable",
      "type": "function"
    },
    {
      "constant": true,
      "inputs": [
        {
          "internalType": "address",
          "name": "",
          "type": "address"
        }
      ],
      "name": "users",
      "outputs": [
        {
          "internalType": "string",
          "name": "userName",
          "type": "string"
        },
        {
          "internalType": "bool",
          "name": "exist",
          "type": "bool"
        },
        {
          "internalType": "uint256",
          "name": "mintingLimit",
          "type": "uint256"
        },
        {
          "internalType": "address",
          "name": "account",
          "type": "address"
        }
      ],
      "payable": false,
      "stateMutability": "view",
      "type": "function"
    },
    {
      "constant": true,
      "inputs": [],
      "name": "getUserData",
      "outputs": [
        {
          "components": [
            {
              "internalType": "string",
              "name": "userName",
              "type": "string"
            },
            {
              "internalType": "bool",
              "name": "exist",
              "type": "bool"
            },
            {
              "internalType": "uint256",
              "name": "mintingLimit",
              "type": "uint256"
            },
            {
              "internalType": "address",
              "name": "account",
              "type": "address"
            }
          ],
          "internalType": "struct User.UserData",
          "name": "",
          "type": "tuple"
        }
      ],
      "payable": false,
      "stateMutability": "view",
      "type": "function"
    },
    {
      "constant": false,
      "inputs": [
        {
          "internalType": "string",
          "name": "name",
          "type": "string"
        },
        {
          "internalType": "uint256",
          "name": "value",
          "type": "uint256"
        },
        {
          "internalType": "string",
          "name": "category",
          "type": "string"
        },
        {
          "internalType": "string",
          "name": "artFileUrl",
          "type": "string"
        },
        {
          "internalType": "string",
          "name": "userName",
          "type": "string"
        }
      ],
      "name": "createNewNFT",
      "outputs": [],
      "payable": false,
      "stateMutability": "nonpayable",
      "type": "function"
    }
  ],
  "bytecode": "0x608060405233600460006101000a81548173ffffffffffffffffffffffffffffffffffffffff021916908373ffffffffffffffffffffffffffffffffffffffff160217905550600460009054906101000a900473ffffffffffffffffffffffffffffffffffffffff1673ffffffffffffffffffffffffffffffffffffffff16600073ffffffffffffffffffffffffffffffffffffffff167f8be0079c531659141344cd1fd0a4f28419497f9722a3daafe3b4186f6b6457e060405160405180910390a36121e6806100d16000396000f3fe6080604052600436106100f35760003560e01c8063a87430ba1161008a578063e0391b0911610059578063e0391b0914610325578063e602eb3d14610350578063f2fde38b14610391578063fb88df18146103ba576100f3565b8063a87430ba14610242578063caa56c6d14610282578063d51fe9cb146102ab578063dd297ce8146102e8576100f3565b806370a08231116100c657806370a0823114610198578063715018a6146101d55780638da5cb5b146101ec5780638f32d59b14610217576100f3565b8063095ea7b3146100f857806322e8c87d1461011457806323b872dd1461013f5780636352211e1461015b575b600080fd5b610112600480360361010d9190810190611924565b6103f7565b005b34801561012057600080fd5b5061012961054a565b6040516101369190611f3b565b60405180910390f35b610159600480360361015491908101906118d5565b6106be565b005b34801561016757600080fd5b50610182600480360361017d9190810190611a37565b6107d6565b60405161018f9190611dfb565b60405180910390f35b3480156101a457600080fd5b506101bf60048036036101ba91908101906118ac565b610812565b6040516101cc9190611f5d565b60405180910390f35b3480156101e157600080fd5b506101ea61085b565b005b3480156101f857600080fd5b5061020161092d565b60405161020e9190611dfb565b60405180910390f35b34801561022357600080fd5b5061022c610957565b6040516102399190611e38565b60405180910390f35b34801561024e57600080fd5b50610269600480360361026491908101906118ac565b6109af565b6040516102799493929190611e53565b60405180910390f35b34801561028e57600080fd5b506102a960048036036102a49190810190611960565b610aa4565b005b3480156102b757600080fd5b506102d260048036036102cd9190810190611a37565b610b4e565b6040516102df9190611dfb565b60405180910390f35b3480156102f457600080fd5b5061030f600480360361030a9190810190611a37565b610b81565b60405161031c9190611dfb565b60405180910390f35b34801561033157600080fd5b5061033a610bb4565b6040516103479190611e16565b60405180910390f35b34801561035c57600080fd5b5061037760048036036103729190810190611a37565b610e0d565b604051610388959493929190611fa8565b60405180910390f35b34801561039d57600080fd5b506103b860048036036103b391908101906118ac565b611018565b005b3480156103c657600080fd5b506103e160048036036103dc91908101906118ac565b611035565b6040516103ee9190611f5d565b60405180910390f35b8060008082815260200190815260200160002060009054906101000a900473ffffffffffffffffffffffffffffffffffffffff1673ffffffffffffffffffffffffffffffffffffffff163373ffffffffffffffffffffffffffffffffffffffff1614610498576040517f08c379a000000000000000000000000000000000000000000000000000000000815260040161048f90611eed565b60405180910390fd5b826002600084815260200190815260200160002060006101000a81548173ffffffffffffffffffffffffffffffffffffffff021916908373ffffffffffffffffffffffffffffffffffffffff160217905550818373ffffffffffffffffffffffffffffffffffffffff163373ffffffffffffffffffffffffffffffffffffffff167f8c5be1e5ebec7d5bd14f71427d1e84f3dd0314c0f7b2291e5b200ac8c7c3b92560405160405180910390a4505050565b610552611749565b600560003373ffffffffffffffffffffffffffffffffffffffff1673ffffffffffffffffffffffffffffffffffffffff168152602001908152602001600020604051806080016040529081600082018054600181600116156101000203166002900480601f0160208091040260200160405190810160405280929190818152602001828054600181600116156101000203166002900480156106355780601f1061060a57610100808354040283529160200191610635565b820191906000526020600020905b81548152906001019060200180831161061857829003601f168201915b505050505081526020016001820160009054906101000a900460ff16151515158152602001600282015481526020016003820160009054906101000a900473ffffffffffffffffffffffffffffffffffffffff1673ffffffffffffffffffffffffffffffffffffffff1673ffffffffffffffffffffffffffffffffffffffff1681525050905090565b34600382815481106106cc57fe5b9060005260206000209060050201600301541461071e576040517f08c379a000000000000000000000000000000000000000000000000000000000815260040161071590611e9f565b60405180910390fd5b61072983838361104d565b60008390508073ffffffffffffffffffffffffffffffffffffffff166108fc349081150290604051600060405180830381858888f19350505050158015610774573d6000803e3d6000fd5b50818373ffffffffffffffffffffffffffffffffffffffff168573ffffffffffffffffffffffffffffffffffffffff167fddf252ad1be2c89b69c2b068fc378daa952ba7f163c4a11628f55a4df523b3ef60405160405180910390a450505050565b600080600083815260200190815260200160002060009054906101000a900473ffffffffffffffffffffffffffffffffffffffff169050919050565b6000600160008373ffffffffffffffffffffffffffffffffffffffff1673ffffffffffffffffffffffffffffffffffffffff168152602001908152602001600020549050919050565b610863610957565b61086c57600080fd5b600073ffffffffffffffffffffffffffffffffffffffff16600460009054906101000a900473ffffffffffffffffffffffffffffffffffffffff1673ffffffffffffffffffffffffffffffffffffffff167f8be0079c531659141344cd1fd0a4f28419497f9722a3daafe3b4186f6b6457e060405160405180910390a36000600460006101000a81548173ffffffffffffffffffffffffffffffffffffffff021916908373ffffffffffffffffffffffffffffffffffffffff160217905550565b6000600460009054906101000a900473ffffffffffffffffffffffffffffffffffffffff16905090565b6000600460009054906101000a900473ffffffffffffffffffffffffffffffffffffffff1673ffffffffffffffffffffffffffffffffffffffff163373ffffffffffffffffffffffffffffffffffffffff1614905090565b6005602052806000526040600020600091509050806000018054600181600116156101000203166002900480601f016020809104026020016040519081016040528092919081815260200182805460018160011615610100020316600290048015610a5b5780601f10610a3057610100808354040283529160200191610a5b565b820191906000526020600020905b815481529060010190602001808311610a3e57829003601f168201915b5050505050908060010160009054906101000a900460ff16908060020154908060030160009054906101000a900473ffffffffffffffffffffffffffffffffffffffff16905084565b600560003373ffffffffffffffffffffffffffffffffffffffff1673ffffffffffffffffffffffffffffffffffffffff16815260200190815260200160002060020154600160003373ffffffffffffffffffffffffffffffffffffffff1673ffffffffffffffffffffffffffffffffffffffff168152602001908152602001600020541115610b3257600080fd5b610b3b816111cd565b610b47858585856112ab565b5050505050565b60006020528060005260406000206000915054906101000a900473ffffffffffffffffffffffffffffffffffffffff1681565b60026020528060005260406000206000915054906101000a900473ffffffffffffffffffffffffffffffffffffffff1681565b60606003805480602002602001604051908101604052809291908181526020016000905b82821015610e0457838290600052602060002090600502016040518060a001604052908160008201548152602001600182018054600181600116156101000203166002900480601f016020809104026020016040519081016040528092919081815260200182805460018160011615610100020316600290048015610c9e5780601f10610c7357610100808354040283529160200191610c9e565b820191906000526020600020905b815481529060010190602001808311610c8157829003601f168201915b50505050508152602001600282018054600181600116156101000203166002900480601f016020809104026020016040519081016040528092919081815260200182805460018160011615610100020316600290048015610d405780601f10610d1557610100808354040283529160200191610d40565b820191906000526020600020905b815481529060010190602001808311610d2357829003601f168201915b5050505050815260200160038201548152602001600482018054600181600116156101000203166002900480601f016020809104026020016040519081016040528092919081815260200182805460018160011615610100020316600290048015610dec5780601f10610dc157610100808354040283529160200191610dec565b820191906000526020600020905b815481529060010190602001808311610dcf57829003601f168201915b50505050508152505081526020019060010190610bd8565b50505050905090565b60038181548110610e1a57fe5b9060005260206000209060050201600091509050806000015490806001018054600181600116156101000203166002900480601f016020809104026020016040519081016040528092919081815260200182805460018160011615610100020316600290048015610ecc5780601f10610ea157610100808354040283529160200191610ecc565b820191906000526020600020905b815481529060010190602001808311610eaf57829003601f168201915b505050505090806002018054600181600116156101000203166002900480601f016020809104026020016040519081016040528092919081815260200182805460018160011615610100020316600290048015610f6a5780601f10610f3f57610100808354040283529160200191610f6a565b820191906000526020600020905b815481529060010190602001808311610f4d57829003601f168201915b505050505090806003015490806004018054600181600116156101000203166002900480601f01602080910402602001604051908101604052809291908181526020018280546001816001161561010002031660029004801561100e5780601f10610fe35761010080835404028352916020019161100e565b820191906000526020600020905b815481529060010190602001808311610ff157829003601f168201915b5050505050905085565b611020610957565b61102957600080fd5b611032816114bd565b50565b60016020528060005260406000206000915090505481565b61109f60018060008573ffffffffffffffffffffffffffffffffffffffff1673ffffffffffffffffffffffffffffffffffffffff168152602001908152602001600020546115b790919063ffffffff16565b600160008473ffffffffffffffffffffffffffffffffffffffff1673ffffffffffffffffffffffffffffffffffffffff1681526020019081526020016000208190555061113460018060008673ffffffffffffffffffffffffffffffffffffffff1673ffffffffffffffffffffffffffffffffffffffff168152602001908152602001600020546115d390919063ffffffff16565b600160008573ffffffffffffffffffffffffffffffffffffffff1673ffffffffffffffffffffffffffffffffffffffff168152602001908152602001600020819055508160008083815260200190815260200160002060006101000a81548173ffffffffffffffffffffffffffffffffffffffff021916908373ffffffffffffffffffffffffffffffffffffffff160217905550505050565b60001515600560003373ffffffffffffffffffffffffffffffffffffffff1673ffffffffffffffffffffffffffffffffffffffff16815260200190815260200160002060010160009054906101000a900460ff161515141561126f57611232816115ea565b7f498e86ce68b74d646cb38349145e0faf33df652ddb4c63ebdbfb77082e620c9060016040516112629190611f0d565b60405180910390a16112a8565b7f498e86ce68b74d646cb38349145e0faf33df652ddb4c63ebdbfb77082e620c90600060405161129f9190611ebf565b60405180910390a15b50565b6000600160036040518060a0016040528060008152602001888152602001868152602001878152602001858152509080600181540180825580915050906001820390600052602060002090600502016000909192909190915060008201518160000155602082015181600101908051906020019061132a929190611789565b506040820151816002019080519060200190611347929190611789565b5060608201518160030155608082015181600401908051906020019061136e929190611789565b505050039050806003828154811061138257fe5b9060005260206000209060050201600001819055503360008083815260200190815260200160002060006101000a81548173ffffffffffffffffffffffffffffffffffffffff021916908373ffffffffffffffffffffffffffffffffffffffff16021790555061143a60018060003373ffffffffffffffffffffffffffffffffffffffff1673ffffffffffffffffffffffffffffffffffffffff168152602001908152602001600020546115b790919063ffffffff16565b600160003373ffffffffffffffffffffffffffffffffffffffff1673ffffffffffffffffffffffffffffffffffffffff168152602001908152602001600020819055507ff3516922ab7b85da7be501737934fc735e896c9a5685afafa68a7680ba6feed081866040516114ae929190611f78565b60405180910390a15050505050565b600073ffffffffffffffffffffffffffffffffffffffff168173ffffffffffffffffffffffffffffffffffffffff1614156114f757600080fd5b8073ffffffffffffffffffffffffffffffffffffffff16600460009054906101000a900473ffffffffffffffffffffffffffffffffffffffff1673ffffffffffffffffffffffffffffffffffffffff167f8be0079c531659141344cd1fd0a4f28419497f9722a3daafe3b4186f6b6457e060405160405180910390a380600460006101000a81548173ffffffffffffffffffffffffffffffffffffffff021916908373ffffffffffffffffffffffffffffffffffffffff16021790555050565b6000808284019050838110156115c957fe5b8091505092915050565b6000828211156115df57fe5b818303905092915050565b6115f2611749565b6040518060800160405280838152602001600115158152602001600481526020013373ffffffffffffffffffffffffffffffffffffffff16815250905080600560003373ffffffffffffffffffffffffffffffffffffffff1673ffffffffffffffffffffffffffffffffffffffff168152602001908152602001600020600082015181600001908051906020019061168b929190611789565b5060208201518160010160006101000a81548160ff0219169083151502179055506040820151816002015560608201518160030160006101000a81548173ffffffffffffffffffffffffffffffffffffffff021916908373ffffffffffffffffffffffffffffffffffffffff1602179055509050506000600160003373ffffffffffffffffffffffffffffffffffffffff1673ffffffffffffffffffffffffffffffffffffffff168152602001908152602001600020819055505050565b60405180608001604052806060815260200160001515815260200160008152602001600073ffffffffffffffffffffffffffffffffffffffff1681525090565b828054600181600116156101000203166002900490600052602060002090601f016020900481019282601f106117ca57805160ff19168380011785556117f8565b828001600101855582156117f8579182015b828111156117f75782518255916020019190600101906117dc565b5b5090506118059190611809565b5090565b61182b91905b8082111561182757600081600090555060010161180f565b5090565b90565b60008135905061183d81612175565b92915050565b600082601f83011261185457600080fd5b81356118676118628261203d565b612010565b9150808252602083016020830185838301111561188357600080fd5b61188e838284612122565b50505092915050565b6000813590506118a68161218c565b92915050565b6000602082840312156118be57600080fd5b60006118cc8482850161182e565b91505092915050565b6000806000606084860312156118ea57600080fd5b60006118f88682870161182e565b93505060206119098682870161182e565b925050604061191a86828701611897565b9150509250925092565b6000806040838503121561193757600080fd5b60006119458582860161182e565b925050602061195685828601611897565b9150509250929050565b600080600080600060a0868803121561197857600080fd5b600086013567ffffffffffffffff81111561199257600080fd5b61199e88828901611843565b95505060206119af88828901611897565b945050604086013567ffffffffffffffff8111156119cc57600080fd5b6119d888828901611843565b935050606086013567ffffffffffffffff8111156119f557600080fd5b611a0188828901611843565b925050608086013567ffffffffffffffff811115611a1e57600080fd5b611a2a88828901611843565b9150509295509295909350565b600060208284031215611a4957600080fd5b6000611a5784828501611897565b91505092915050565b6000611a6c8383611cf6565b905092915050565b611a7d816120da565b82525050565b611a8c816120da565b82525050565b6000611a9d82612079565b611aa781856120a7565b935083602082028501611ab985612069565b8060005b85811015611af55784840389528151611ad68582611a60565b9450611ae18361209a565b925060208a01995050600181019050611abd565b50829750879550505050505092915050565b611b10816120ec565b82525050565b611b1f816120ec565b82525050565b6000611b308261208f565b611b3a81856120c9565b9350611b4a818560208601612131565b611b5381612164565b840191505092915050565b6000611b6982612084565b611b7381856120b8565b9350611b83818560208601612131565b611b8c81612164565b840191505092915050565b6000611ba282612084565b611bac81856120c9565b9350611bbc818560208601612131565b611bc581612164565b840191505092915050565b6000611bdd602e836120c9565b91507f596f7520646f6e2774206861766520656e6f7567682066756e647320666f722060008301527f74686973207472616e73666572210000000000000000000000000000000000006020830152604082019050919050565b6000611c43600d836120c9565b91507f55736572206578697374732021000000000000000000000000000000000000006000830152602082019050919050565b6000611c836017836120c9565b91507f596f7520617265206e6f7420746865206f776e657220210000000000000000006000830152602082019050919050565b6000611cc36011836120c9565b91507f4e657720557365722043726561746564210000000000000000000000000000006000830152602082019050919050565b600060a083016000830151611d0e6000860182611ddd565b5060208301518482036020860152611d268282611b5e565b91505060408301518482036040860152611d408282611b5e565b9150506060830151611d556060860182611ddd565b5060808301518482036080860152611d6d8282611b5e565b9150508091505092915050565b60006080830160008301518482036000860152611d978282611b5e565b9150506020830151611dac6020860182611b07565b506040830151611dbf6040860182611ddd565b506060830151611dd26060860182611a74565b508091505092915050565b611de681612118565b82525050565b611df581612118565b82525050565b6000602082019050611e106000830184611a83565b92915050565b60006020820190508181036000830152611e308184611a92565b905092915050565b6000602082019050611e4d6000830184611b16565b92915050565b60006080820190508181036000830152611e6d8187611b97565b9050611e7c6020830186611b16565b611e896040830185611dec565b611e966060830184611a83565b95945050505050565b60006020820190508181036000830152611eb881611bd0565b9050919050565b60006040820190508181036000830152611ed881611c36565b9050611ee76020830184611b16565b92915050565b60006020820190508181036000830152611f0681611c76565b9050919050565b60006040820190508181036000830152611f2681611cb6565b9050611f356020830184611b16565b92915050565b60006020820190508181036000830152611f558184611d7a565b905092915050565b6000602082019050611f726000830184611dec565b92915050565b6000604082019050611f8d6000830185611dec565b8181036020830152611f9f8184611b25565b90509392505050565b600060a082019050611fbd6000830188611dec565b8181036020830152611fcf8187611b97565b90508181036040830152611fe38186611b97565b9050611ff26060830185611dec565b81810360808301526120048184611b97565b90509695505050505050565b6000604051905081810181811067ffffffffffffffff8211171561203357600080fd5b8060405250919050565b600067ffffffffffffffff82111561205457600080fd5b601f19601f8301169050602081019050919050565b6000819050602082019050919050565b600081519050919050565b600081519050919050565b600081519050919050565b6000602082019050919050565b600082825260208201905092915050565b600082825260208201905092915050565b600082825260208201905092915050565b60006120e5826120f8565b9050919050565b60008115159050919050565b600073ffffffffffffffffffffffffffffffffffffffff82169050919050565b6000819050919050565b82818337600083830152505050565b60005b8381101561214f578082015181840152602081019050612134565b8381111561215e576000848401525b50505050565b6000601f19601f8301169050919050565b61217e816120da565b811461218957600080fd5b50565b61219581612118565b81146121a057600080fd5b5056fea365627a7a72315820976a563a20716b059f76e91de388f08d9ccfab838a38692ab922ce2f0a35d5546c6578706572696d656e74616cf564736f6c63430005110040",
  "source": "pragma solidity >=0.5.0 <0.6.0;\r\npragma experimental ABIEncoderV2;\r\n\r\nimport \"./nft.sol\";\r\nimport \"./ownable.sol\";\r\n\r\n/**\r\n   Smart contract to hold the user data also imports the Ownable and NFT smart contracts\r\n */\r\ncontract User is NFT,Ownable{\r\n\r\n    // event for new created users\r\n    event UserCreatedStatus(string stateMsg,bool result);\r\n\r\n    // user data structure\r\n    struct UserData {\r\n        string userName; // a user nickname\r\n\r\n        // Useful for checking if an object already exist in users[]. Must be set to true at UserData object creation time.\r\n        bool exist; \r\n        uint256 mintingLimit;\r\n        address account;\r\n    }\r\n\r\n    // mapping to store a User object for the user that created it.\r\n    mapping(address => UserData) public users;\r\n\r\n\r\n\r\n    /**\r\n     *\r\n     * @dev Function to create a new user and add them to the users mapping\r\n     */\r\n    function _createUser(string memory _name) private {\r\n\r\n        // create the Object UserData\r\n        UserData memory user = UserData(_name,true,4,msg.sender);\r\n\r\n        // set the mapping user that called the _createUser to their address\r\n        users[msg.sender] = user;\r\n        // initialize  the mapping of user => NFT to 0 \r\n        ownerNFTCount[msg.sender] = 0;\r\n\r\n    }\r\n\r\n    /**\r\n\r\n     * @dev Function to retrieve user data if it exists\r\n     */\r\n\r\n    function getUserData()\r\n        public\r\n        view\r\n        returns (UserData memory)\r\n    {\r\n        return (users[msg.sender]);\r\n    }\r\n\r\n    /**\r\n     *\r\n     * @dev Function to create a new user and add them to the users mapping if they don't exist\r\n     * @return true if the user was added\r\n     * @return false if the user already exists\r\n     */\r\n\r\n    function CheckAndCreateUser(string memory _name) private  {\r\n\r\n\r\n        // check the there is a user with the specified address \r\n        if (users[msg.sender].exist == false) {\r\n            _createUser(_name);\r\n            // emit an event to indicate a new user was created \r\n            emit UserCreatedStatus(\"New User Created!\",true);\r\n         \r\n        } else {\r\n            //  user already exists emit an event\r\n             emit UserCreatedStatus(\"User exists !\",false);\r\n\r\n        }\r\n        \r\n    }\r\n\r\n    /**\r\n     *\r\n     * @dev Function to create a new NFT for a user calling this function\r\n     */\r\n    function createNewNFT(\r\n        string memory name,\r\n        uint256 value, \r\n        string memory category,\r\n        string memory artFileUrl,\r\n        string memory userName\r\n    ) public {\r\n        // make sure the user hasn't passed the limit of how many NFTs they can mint\r\n        // the limit can be adjust later based on the user activity\r\n        require(ownerNFTCount[msg.sender] <= users[msg.sender].mintingLimit);\r\n\r\n        // create a user if they don't exist\r\n        CheckAndCreateUser(userName);\r\n\r\n        // mint a new NFT using NFT contract method _mintERC721Token\r\n        _mintERC721Token(name, value, category, artFileUrl);\r\n    }\r\n}\r\n",
  "sourcePath": "C:\\Users\\adam\\Repos\\GRAD-ETH-PROJ\\solidity_contracts\\contracts\\user.sol",
  "compiler": {
    "name": "solc",
    "version": "0.5.17+commit.d19bba13.Emscripten.clang"
  },
  "schemaVersion": "3.4.11",
  "updatedAt": "2023-01-27T03:48:37.082Z",
  "networkType": "ethereum",
  "devdoc": {
    "methods": {
      "approve(address,uint256)": {
        "details": "method that allows only the owner of an NFT using the modifier onlyOwnerOf to approve an other user to transfer ownership "
      },
      "balanceOf(address)": {
        "details": "method to get the number of NFT's a caller has",
        "return": "uint as the count"
      },
      "createNewNFT(string,uint256,string,string,string)": {
        "details": "Function to create a new NFT for a user calling this function"
      },
      "getAllNFTs()": {
        "details": "method that returns the entire NFTsList",
        "return": "Nft[] "
      },
      "getUserData()": {
        "details": "Function to retrieve user data if it exists"
      },
      "isOwner()": {
        "return": "true if `msg.sender` is the owner of the contract."
      },
      "owner()": {
        "return": "the address of the owner."
      },
      "ownerOf(uint256)": {
        "details": "method to get the address of the an NFT owner",
        "return": "address of the owner"
      },
      "renounceOwnership()": {
        "details": "Allows the current owner to relinquish control of the contract."
      },
      "transferFrom(address,address,uint256)": {
        "details": "public payable method that gets called  from the front-end using metamask as the user account and web.js this method will call _transferNFT to transfer the NFT ownership and transfers the amount set in the  transaction from the sender's address to the receiver's (caller) address "
      },
      "transferOwnership(address)": {
        "details": "Allows the current owner to transfer control of the contract to a newOwner.",
        "params": {
          "newOwner": "The address to transfer ownership to."
        }
      }
    }
  },
  "userdoc": {
    "methods": {
      "renounceOwnership()": {
        "notice": "Renouncing to ownership will leave the contract without an owner. It will not be possible to call the functions with the `onlyOwner` modifier anymore."
      }
    },
    "notice": "Smart contract to hold the user data also imports the Ownable and NFT smart contracts"
  }
}